{
  "contractName": "Oracle",
  "abi": [
    {
      "inputs": [],
      "stateMutability": "nonpayable",
      "type": "constructor"
    },
    {
      "inputs": [],
      "name": "getLatestPrice",
      "outputs": [
        {
          "internalType": "int256",
          "name": "",
          "type": "int256"
        }
      ],
      "stateMutability": "view",
      "type": "function",
      "constant": true
    }
  ],
  "bytecode": "0x608060405234801561001057600080fd5b50600080546001600160a01b03191673777a68032a88e5a84678a77af2cd65a7b3c0775a17905561018e806100466000396000f3fe608060405234801561001057600080fd5b506004361061002b5760003560e01c80638e15f47314610030575b600080fd5b61003861004a565b60405190815260200160405180910390f35b60008054604080517ffeaf968c0000000000000000000000000000000000000000000000000000000081529051839273ffffffffffffffffffffffffffffffffffffffff169163feaf968c9160048083019260a09291908290030181865afa1580156100ba573d6000803e3d6000fd5b505050506040513d601f19601f820116820180604052508101906100de9190610108565b509195945050505050565b805169ffffffffffffffffffff8116811461010357600080fd5b919050565b600080600080600060a0868803121561012057600080fd5b610129866100e9565b945060208601519350604086015192506060860151915061014c608087016100e9565b9050929550929590935056fea2646970667358221220e6c4b614240a296cf474bd590711220f436fd6f43bdb946af11aed14d0b6152a64736f6c634300080d0033",
  "immutableReferences": {},
  "source": "// SPDX-License-Identifier: MIT\npragma solidity 0.8.13;\n\nimport \"@chainlink/contracts/src/v0.8/interfaces/AggregatorV3Interface.sol\";\n\ncontract Oracle {\n\n    AggregatorV3Interface internal priceFeed;\n\n    /**\n     * Network: Kovan\n     * Aggregator: Dai/USD\n     * Address: 0x8993ED705cdf5e84D0a3B754b5Ee0e1783fcdF16\n     */\n    constructor() {\n        priceFeed = AggregatorV3Interface(0x777A68032a88E5A84678A77Af2CD65A7b3c0775a);\n    }\n\n    /**\n     * Returns the latest price\n     */\n    function getLatestPrice() external view returns (int) {\n        (\n            /*uint80 roundID*/,\n            int price,\n            /*uint startedAt*/,\n            /*uint timeStamp*/,\n            /*uint80 answeredInRound*/\n        ) = priceFeed.latestRoundData();\n        return price;\n    }\n}",
  "sourcePath": "/home/amsteradams/developpement/Solidity-defi/Staking/contracts/Oracle.sol",
  "compiler": {
    "name": "solc",
    "version": "0.8.13+commit.abaa5c0e.Emscripten.clang"
  },
  "schemaVersion": "3.4.6",
  "updatedAt": "2022-05-02T12:45:15.050Z",
  "networkType": "ethereum",
  "devdoc": {
    "kind": "dev",
    "methods": {},
    "version": 1
  },
  "userdoc": {
    "kind": "user",
    "methods": {
      "constructor": {
        "notice": "Network: Kovan Aggregator: Dai/USD Address: 0x8993ED705cdf5e84D0a3B754b5Ee0e1783fcdF16"
      },
      "getLatestPrice()": {
        "notice": "Returns the latest price"
      }
    },
    "version": 1
  }
}