{
  "contractName": "Oracle",
  "abi": [
    {
      "inputs": [
        {
          "internalType": "address",
          "name": "_addr",
          "type": "address"
        }
      ],
      "name": "getLatestPrice",
      "outputs": [
        {
          "internalType": "int256",
          "name": "",
          "type": "int256"
        }
      ],
      "stateMutability": "view",
      "type": "function",
      "constant": true
    }
  ],
  "bytecode": "0x608060405234801561001057600080fd5b506101b5806100206000396000f3fe608060405234801561001057600080fd5b506004361061002b5760003560e01c806316345f1814610030575b600080fd5b61004361003e3660046100d3565b610055565b60405190815260200160405180910390f35b6000808273ffffffffffffffffffffffffffffffffffffffff1663feaf968c6040518163ffffffff1660e01b815260040160a060405180830381865afa1580156100a3573d6000803e3d6000fd5b505050506040513d601f19601f820116820180604052508101906100c7919061012f565b50919695505050505050565b6000602082840312156100e557600080fd5b813573ffffffffffffffffffffffffffffffffffffffff8116811461010957600080fd5b9392505050565b805169ffffffffffffffffffff8116811461012a57600080fd5b919050565b600080600080600060a0868803121561014757600080fd5b61015086610110565b945060208601519350604086015192506060860151915061017360808701610110565b9050929550929590935056fea264697066735822122013a207b87ef843728988df9cd29c0f745a024d8e5b5fd128b16b06bfa2c542be64736f6c634300080d0033",
  "immutableReferences": {},
  "source": "// SPDX-License-Identifier: MIT\npragma solidity 0.8.13;\n\nimport \"@chainlink/contracts/src/v0.8/interfaces/AggregatorV3Interface.sol\";\n\ncontract Oracle {\n /**\n     * Network: Kovan\n     * Aggregator: Dai/USD\n     * Address: 0x777A68032a88E5A84678A77Af2CD65A7b3c0775a\n     * Aggregator : BNB/USD\n     * Address : 0x8993ED705cdf5e84D0a3B754b5Ee0e1783fcdF16\n     * Aggregator : Link/USD\n     * Address : 0x396c5E36DD0a0F5a5D33dae44368D4193f69a1F0\n     */\n\n    /**\n     * Returns the latest price\n     */\n    function getLatestPrice(address _addr) external view returns (int) {\n        (\n            /*uint80 roundID*/,\n            int price,\n            /*uint startedAt*/,\n            /*uint timeStamp*/,\n            /*uint80 answeredInRound*/\n        ) = AggregatorV3Interface(_addr).latestRoundData();\n        return price;\n    }\n}",
  "sourcePath": "/home/amsteradams/developpement/Solidity-defi/Staking/contracts/Oracle.sol",
  "compiler": {
    "name": "solc",
    "version": "0.8.13+commit.abaa5c0e.Emscripten.clang"
  },
  "schemaVersion": "3.4.6",
  "updatedAt": "2022-05-03T11:33:47.262Z",
  "networkType": "ethereum",
  "devdoc": {
    "kind": "dev",
    "methods": {},
    "version": 1
  },
  "userdoc": {
    "kind": "user",
    "methods": {
      "getLatestPrice(address)": {
        "notice": "Returns the latest price"
      }
    },
    "version": 1
  }
}