{
  "contractName": "Staking",
  "abi": [
    {
      "inputs": [
        {
          "internalType": "address",
          "name": "_addr",
          "type": "address"
        }
      ],
      "stateMutability": "nonpayable",
      "type": "constructor"
    },
    {
      "anonymous": false,
      "inputs": [
        {
          "indexed": true,
          "internalType": "address",
          "name": "owner",
          "type": "address"
        },
        {
          "indexed": true,
          "internalType": "address",
          "name": "spender",
          "type": "address"
        },
        {
          "indexed": false,
          "internalType": "uint256",
          "name": "value",
          "type": "uint256"
        }
      ],
      "name": "Approval",
      "type": "event"
    },
    {
      "anonymous": false,
      "inputs": [
        {
          "indexed": true,
          "internalType": "address",
          "name": "previousOwner",
          "type": "address"
        },
        {
          "indexed": true,
          "internalType": "address",
          "name": "newOwner",
          "type": "address"
        }
      ],
      "name": "OwnershipTransferred",
      "type": "event"
    },
    {
      "anonymous": false,
      "inputs": [
        {
          "indexed": true,
          "internalType": "address",
          "name": "_from",
          "type": "address"
        },
        {
          "indexed": false,
          "internalType": "uint256",
          "name": "_value",
          "type": "uint256"
        }
      ],
      "name": "Staked",
      "type": "event"
    },
    {
      "anonymous": false,
      "inputs": [
        {
          "indexed": true,
          "internalType": "address",
          "name": "from",
          "type": "address"
        },
        {
          "indexed": true,
          "internalType": "address",
          "name": "to",
          "type": "address"
        },
        {
          "indexed": false,
          "internalType": "uint256",
          "name": "value",
          "type": "uint256"
        }
      ],
      "name": "Transfer",
      "type": "event"
    },
    {
      "anonymous": false,
      "inputs": [
        {
          "indexed": true,
          "internalType": "address",
          "name": "_from",
          "type": "address"
        },
        {
          "indexed": false,
          "internalType": "uint256",
          "name": "_value",
          "type": "uint256"
        }
      ],
      "name": "UnStaked",
      "type": "event"
    },
    {
      "inputs": [
        {
          "internalType": "address",
          "name": "owner",
          "type": "address"
        },
        {
          "internalType": "address",
          "name": "spender",
          "type": "address"
        }
      ],
      "name": "allowance",
      "outputs": [
        {
          "internalType": "uint256",
          "name": "",
          "type": "uint256"
        }
      ],
      "stateMutability": "view",
      "type": "function",
      "constant": true
    },
    {
      "inputs": [
        {
          "internalType": "address",
          "name": "spender",
          "type": "address"
        },
        {
          "internalType": "uint256",
          "name": "amount",
          "type": "uint256"
        }
      ],
      "name": "approve",
      "outputs": [
        {
          "internalType": "bool",
          "name": "",
          "type": "bool"
        }
      ],
      "stateMutability": "nonpayable",
      "type": "function"
    },
    {
      "inputs": [
        {
          "internalType": "address",
          "name": "account",
          "type": "address"
        }
      ],
      "name": "balanceOf",
      "outputs": [
        {
          "internalType": "uint256",
          "name": "",
          "type": "uint256"
        }
      ],
      "stateMutability": "view",
      "type": "function",
      "constant": true
    },
    {
      "inputs": [],
      "name": "decimals",
      "outputs": [
        {
          "internalType": "uint8",
          "name": "",
          "type": "uint8"
        }
      ],
      "stateMutability": "view",
      "type": "function",
      "constant": true
    },
    {
      "inputs": [
        {
          "internalType": "address",
          "name": "spender",
          "type": "address"
        },
        {
          "internalType": "uint256",
          "name": "subtractedValue",
          "type": "uint256"
        }
      ],
      "name": "decreaseAllowance",
      "outputs": [
        {
          "internalType": "bool",
          "name": "",
          "type": "bool"
        }
      ],
      "stateMutability": "nonpayable",
      "type": "function"
    },
    {
      "inputs": [
        {
          "internalType": "address",
          "name": "spender",
          "type": "address"
        },
        {
          "internalType": "uint256",
          "name": "addedValue",
          "type": "uint256"
        }
      ],
      "name": "increaseAllowance",
      "outputs": [
        {
          "internalType": "bool",
          "name": "",
          "type": "bool"
        }
      ],
      "stateMutability": "nonpayable",
      "type": "function"
    },
    {
      "inputs": [],
      "name": "name",
      "outputs": [
        {
          "internalType": "string",
          "name": "",
          "type": "string"
        }
      ],
      "stateMutability": "view",
      "type": "function",
      "constant": true
    },
    {
      "inputs": [],
      "name": "owner",
      "outputs": [
        {
          "internalType": "address",
          "name": "",
          "type": "address"
        }
      ],
      "stateMutability": "view",
      "type": "function",
      "constant": true
    },
    {
      "inputs": [],
      "name": "renounceOwnership",
      "outputs": [],
      "stateMutability": "nonpayable",
      "type": "function"
    },
    {
      "inputs": [],
      "name": "symbol",
      "outputs": [
        {
          "internalType": "string",
          "name": "",
          "type": "string"
        }
      ],
      "stateMutability": "view",
      "type": "function",
      "constant": true
    },
    {
      "inputs": [],
      "name": "totalSupply",
      "outputs": [
        {
          "internalType": "uint256",
          "name": "",
          "type": "uint256"
        }
      ],
      "stateMutability": "view",
      "type": "function",
      "constant": true
    },
    {
      "inputs": [
        {
          "internalType": "address",
          "name": "to",
          "type": "address"
        },
        {
          "internalType": "uint256",
          "name": "amount",
          "type": "uint256"
        }
      ],
      "name": "transfer",
      "outputs": [
        {
          "internalType": "bool",
          "name": "",
          "type": "bool"
        }
      ],
      "stateMutability": "nonpayable",
      "type": "function"
    },
    {
      "inputs": [
        {
          "internalType": "address",
          "name": "from",
          "type": "address"
        },
        {
          "internalType": "address",
          "name": "to",
          "type": "address"
        },
        {
          "internalType": "uint256",
          "name": "amount",
          "type": "uint256"
        }
      ],
      "name": "transferFrom",
      "outputs": [
        {
          "internalType": "bool",
          "name": "",
          "type": "bool"
        }
      ],
      "stateMutability": "nonpayable",
      "type": "function"
    },
    {
      "inputs": [
        {
          "internalType": "address",
          "name": "newOwner",
          "type": "address"
        }
      ],
      "name": "transferOwnership",
      "outputs": [],
      "stateMutability": "nonpayable",
      "type": "function"
    },
    {
      "inputs": [
        {
          "internalType": "uint256",
          "name": "amount",
          "type": "uint256"
        }
      ],
      "name": "stake",
      "outputs": [],
      "stateMutability": "nonpayable",
      "type": "function"
    },
    {
      "inputs": [],
      "name": "unStake",
      "outputs": [],
      "stateMutability": "nonpayable",
      "type": "function"
    },
    {
      "inputs": [
        {
          "internalType": "address",
          "name": "_addr",
          "type": "address"
        }
      ],
      "name": "getInterests",
      "outputs": [
        {
          "internalType": "uint256",
          "name": "",
          "type": "uint256"
        }
      ],
      "stateMutability": "view",
      "type": "function",
      "constant": true
    },
    {
      "inputs": [
        {
          "internalType": "address",
          "name": "_addr",
          "type": "address"
        }
      ],
      "name": "getLpInterests",
      "outputs": [
        {
          "internalType": "uint256",
          "name": "",
          "type": "uint256"
        }
      ],
      "stateMutability": "view",
      "type": "function",
      "constant": true
    },
    {
      "inputs": [],
      "name": "getContractBalance",
      "outputs": [
        {
          "internalType": "uint256",
          "name": "",
          "type": "uint256"
        }
      ],
      "stateMutability": "view",
      "type": "function",
      "constant": true
    },
    {
      "inputs": [
        {
          "internalType": "address",
          "name": "_addr",
          "type": "address"
        }
      ],
      "name": "getAllowanceOf",
      "outputs": [
        {
          "internalType": "uint256",
          "name": "",
          "type": "uint256"
        }
      ],
      "stateMutability": "view",
      "type": "function",
      "constant": true
    },
    {
      "inputs": [
        {
          "internalType": "address",
          "name": "_addr",
          "type": "address"
        }
      ],
      "name": "getDaiBalanceOf",
      "outputs": [
        {
          "internalType": "uint256",
          "name": "",
          "type": "uint256"
        }
      ],
      "stateMutability": "view",
      "type": "function",
      "constant": true
    },
    {
      "inputs": [
        {
          "internalType": "address",
          "name": "_addr",
          "type": "address"
        }
      ],
      "name": "stakingOf",
      "outputs": [
        {
          "internalType": "uint256",
          "name": "",
          "type": "uint256"
        }
      ],
      "stateMutability": "view",
      "type": "function",
      "constant": true
    },
    {
      "inputs": [
        {
          "internalType": "address",
          "name": "_addr",
          "type": "address"
        }
      ],
      "name": "getStakingTime",
      "outputs": [
        {
          "internalType": "uint256",
          "name": "",
          "type": "uint256"
        }
      ],
      "stateMutability": "view",
      "type": "function",
      "constant": true
    },
    {
      "inputs": [
        {
          "internalType": "address",
          "name": "_addr",
          "type": "address"
        }
      ],
      "name": "gainsOf",
      "outputs": [
        {
          "internalType": "uint256",
          "name": "",
          "type": "uint256"
        }
      ],
      "stateMutability": "view",
      "type": "function",
      "constant": true
    }
  ],
  "bytecode": "0x6080604052600360085560026009553480156200001b57600080fd5b5060405162001ca538038062001ca58339810160408190526200003e91620001ff565b6040518060400160405280600781526020016626382a37b5b2b760c91b81525060405180604001604052806003815260200162131c1560ea1b815250620000946200008e6200010560201b60201c565b62000109565b8151620000a990600490602085019062000159565b508051620000bf90600590602084019062000159565b5050600680546001600160a01b039093166001600160a01b03199384161790555060078054909116734f96fe3b7a6cf9725f59d353f723c1bdb64ca6aa1790556200026d565b3390565b600080546001600160a01b038381166001600160a01b0319831681178455604051919092169283917f8be0079c531659141344cd1fd0a4f28419497f9722a3daafe3b4186f6b6457e09190a35050565b828054620001679062000231565b90600052602060002090601f0160209004810192826200018b5760008555620001d6565b82601f10620001a657805160ff1916838001178555620001d6565b82800160010185558215620001d6579182015b82811115620001d6578251825591602001919060010190620001b9565b50620001e4929150620001e8565b5090565b5b80821115620001e45760008155600101620001e9565b6000602082840312156200021257600080fd5b81516001600160a01b03811681146200022a57600080fd5b9392505050565b600181811c908216806200024657607f821691505b6020821081036200026757634e487b7160e01b600052602260045260246000fd5b50919050565b611a28806200027d6000396000f3fe608060405234801561001057600080fd5b50600436106101985760003560e01c806373cf575a116100e3578063a79326ee1161008c578063d171bbb311610066578063d171bbb314610373578063dd62ed3e14610386578063f2fde38b146103cc57600080fd5b8063a79326ee1461033a578063a9059cbb1461034d578063c31223811461036057600080fd5b806395d89b41116100bd57806395d89b411461030c578063a457c2d714610314578063a694fc3a1461032757600080fd5b806373cf575a146102c95780637957937a146102d15780638da5cb5b146102e457600080fd5b8063313ce567116101455780636f9fb98a1161011f5780636f9fb98a1461028157806370a0823114610289578063715018a6146102bf57600080fd5b8063313ce5671461024c578063395093511461025b5780636645c2991461026e57600080fd5b806318160ddd1161017657806318160ddd1461021e57806323b872dd146102265780632bd7233e1461023957600080fd5b8063037859af1461019d57806306fdde03146101e6578063095ea7b3146101fb575b600080fd5b6101d36101ab366004611747565b73ffffffffffffffffffffffffffffffffffffffff166000908152600a602052604090205490565b6040519081526020015b60405180910390f35b6101ee6103df565b6040516101dd9190611769565b61020e6102093660046117dc565b610471565b60405190151581526020016101dd565b6003546101d3565b61020e610234366004611806565b610489565b6101d3610247366004611747565b6104ad565b604051601281526020016101dd565b61020e6102693660046117dc565b61054f565b6101d361027c366004611747565b61059b565b6101d36105f4565b6101d3610297366004611747565b73ffffffffffffffffffffffffffffffffffffffff1660009081526001602052604090205490565b6102c761068c565b005b6102c7610704565b6101d36102df366004611747565b6109c3565b60005460405173ffffffffffffffffffffffffffffffffffffffff90911681526020016101dd565b6101ee610a94565b61020e6103223660046117dc565b610aa3565b6102c7610335366004611842565b610b5a565b6101d3610348366004611747565b610d87565b61020e61035b3660046117dc565b610efb565b6101d361036e366004611747565b610f09565b6101d3610381366004611747565b610fb8565b6101d361039436600461185b565b73ffffffffffffffffffffffffffffffffffffffff918216600090815260026020908152604080832093909416825291909152205490565b6102c76103da366004611747565b611006565b6060600480546103ee9061188e565b80601f016020809104026020016040519081016040528092919081815260200182805461041a9061188e565b80156104675780601f1061043c57610100808354040283529160200191610467565b820191906000526020600020905b81548152906001019060200180831161044a57829003601f168201915b5050505050905090565b60003361047f818585611102565b5060019392505050565b600033610497858285611281565b6104a285858561133e565b506001949350505050565b6007546040517fdd62ed3e00000000000000000000000000000000000000000000000000000000815273ffffffffffffffffffffffffffffffffffffffff8381166004830152306024830152600092169063dd62ed3e906044015b602060405180830381865afa158015610525573d6000803e3d6000fd5b505050506040513d601f19601f8201168201806040525081019061054991906118e1565b92915050565b33600081815260026020908152604080832073ffffffffffffffffffffffffffffffffffffffff8716845290915281205490919061047f9082908690610596908790611929565b611102565b6007546040517f70a0823100000000000000000000000000000000000000000000000000000000815273ffffffffffffffffffffffffffffffffffffffff838116600483015260009216906370a0823190602401610508565b6007546040517f70a0823100000000000000000000000000000000000000000000000000000000815230600482015260009173ffffffffffffffffffffffffffffffffffffffff16906370a0823190602401602060405180830381865afa158015610663573d6000803e3d6000fd5b505050506040513d601f19601f8201168201806040525081019061068791906118e1565b905090565b60005473ffffffffffffffffffffffffffffffffffffffff1633146106f85760405162461bcd60e51b815260206004820181905260248201527f4f776e61626c653a2063616c6c6572206973206e6f7420746865206f776e657260448201526064015b60405180910390fd5b61070260006115a3565b565b336000908152600a60205260409020546107605760405162461bcd60e51b815260206004820152600d60248201527f4e6f20646169207374616b65640000000000000000000000000000000000000060448201526064016106ef565b336000908152600b602052604081205461077a9042611941565b90506000633b9aca00600660009054906101000a900473ffffffffffffffffffffffffffffffffffffffff1673ffffffffffffffffffffffffffffffffffffffff16638e15f4736040518163ffffffff1660e01b8152600401602060405180830381865afa1580156107f0573d6000803e3d6000fd5b505050506040513d601f19601f8201168201806040525081019061081491906118e1565b61081e9190611958565b610829906001611929565b600854336000908152600a6020526040902054849163bbf81e009161084e9190611993565b6108589190611958565b6108629190611993565b61086c9190611993565b600954336000908152600a602052604081205492935091849163bbf81e00916108959190611993565b61089f9190611958565b6108a99190611993565b336000818152600a6020526040812080549190559192506108ca9083611618565b60075473ffffffffffffffffffffffffffffffffffffffff1663a9059cbb336108f38685611929565b6040517fffffffff0000000000000000000000000000000000000000000000000000000060e085901b16815273ffffffffffffffffffffffffffffffffffffffff909216600483015260248201526044016020604051808303816000875af1158015610963573d6000803e3d6000fd5b505050506040513d601f19601f8201168201806040525081019061098791906119d0565b5060405181815233907f79d3df6837cc49ff0e09fd3258e6e45594e0703445bb06825e9d75156eaee8f09060200160405180910390a250505050565b73ffffffffffffffffffffffffffffffffffffffff81166000908152600a6020526040812054610a355760405162461bcd60e51b815260206004820152600d60248201527f4e6f20646169207374616b65640000000000000000000000000000000000000060448201526064016106ef565b336000908152600b6020526040812054610a4f9042611941565b600954336000908152600a602052604081205492935091839163bbf81e0091610a789190611993565b610a829190611958565b610a8c9190611993565b949350505050565b6060600580546103ee9061188e565b33600081815260026020908152604080832073ffffffffffffffffffffffffffffffffffffffff8716845290915281205490919083811015610b4d5760405162461bcd60e51b815260206004820152602560248201527f45524332303a2064656372656173656420616c6c6f77616e63652062656c6f7760448201527f207a65726f00000000000000000000000000000000000000000000000000000060648201526084016106ef565b6104a28286868403611102565b6007546040517f70a08231000000000000000000000000000000000000000000000000000000008152336004820152829173ffffffffffffffffffffffffffffffffffffffff16906370a0823190602401602060405180830381865afa158015610bc8573d6000803e3d6000fd5b505050506040513d601f19601f82011682018060405250810190610bec91906118e1565b1015610c3a5760405162461bcd60e51b815260206004820152601660248201527f4461692062616c616e636520697320746f6f206c6f770000000000000000000060448201526064016106ef565b80610c44336104ad565b1015610c925760405162461bcd60e51b815260206004820152601560248201527f436f6e7472616374206e6f7420617070726f766564000000000000000000000060448201526064016106ef565b6007546040517f23b872dd0000000000000000000000000000000000000000000000000000000081523360048201523060248201526044810183905273ffffffffffffffffffffffffffffffffffffffff909116906323b872dd906064016020604051808303816000875af1158015610d0f573d6000803e3d6000fd5b505050506040513d601f19601f82011682018060405250810190610d3391906119d0565b50336000818152600a60209081526040808320859055600b82529182902042905590518381527f9e71bc8eea02a63969f509818f2dafb9254532904319f9dbda79b67bd34a5f3d910160405180910390a250565b73ffffffffffffffffffffffffffffffffffffffff81166000908152600a6020526040812054610df95760405162461bcd60e51b815260206004820152600d60248201527f4e6f20646169207374616b65640000000000000000000000000000000000000060448201526064016106ef565b336000908152600b6020526040812054610e139042611941565b90506000633b9aca00600660009054906101000a900473ffffffffffffffffffffffffffffffffffffffff1673ffffffffffffffffffffffffffffffffffffffff16638e15f4736040518163ffffffff1660e01b8152600401602060405180830381865afa158015610e89573d6000803e3d6000fd5b505050506040513d601f19601f82011682018060405250810190610ead91906118e1565b610eb79190611958565b610ec2906001611929565b600854336000908152600a6020526040902054849163bbf81e0091610ee79190611993565b610ef19190611958565b610a829190611993565b60003361047f81858561133e565b73ffffffffffffffffffffffffffffffffffffffff8082166000908152600b602090815260408083205460065482517f8e15f473000000000000000000000000000000000000000000000000000000008152925194959194911692638e15f47392600480820193918290030181865afa158015610f8a573d6000803e3d6000fd5b505050506040513d601f19601f82011682018060405250810190610fae91906118e1565b6105499190611941565b6000610fc3826109c3565b610fcc83610d87565b73ffffffffffffffffffffffffffffffffffffffff84166000908152600a6020526040902054610ffc9190611929565b6105499190611929565b60005473ffffffffffffffffffffffffffffffffffffffff16331461106d5760405162461bcd60e51b815260206004820181905260248201527f4f776e61626c653a2063616c6c6572206973206e6f7420746865206f776e657260448201526064016106ef565b73ffffffffffffffffffffffffffffffffffffffff81166110f65760405162461bcd60e51b815260206004820152602660248201527f4f776e61626c653a206e6577206f776e657220697320746865207a65726f206160448201527f646472657373000000000000000000000000000000000000000000000000000060648201526084016106ef565b6110ff816115a3565b50565b73ffffffffffffffffffffffffffffffffffffffff831661118a5760405162461bcd60e51b8152602060048201526024808201527f45524332303a20617070726f76652066726f6d20746865207a65726f2061646460448201527f726573730000000000000000000000000000000000000000000000000000000060648201526084016106ef565b73ffffffffffffffffffffffffffffffffffffffff82166112135760405162461bcd60e51b815260206004820152602260248201527f45524332303a20617070726f766520746f20746865207a65726f20616464726560448201527f737300000000000000000000000000000000000000000000000000000000000060648201526084016106ef565b73ffffffffffffffffffffffffffffffffffffffff83811660008181526002602090815260408083209487168084529482529182902085905590518481527f8c5be1e5ebec7d5bd14f71427d1e84f3dd0314c0f7b2291e5b200ac8c7c3b925910160405180910390a3505050565b73ffffffffffffffffffffffffffffffffffffffff8381166000908152600260209081526040808320938616835292905220547fffffffffffffffffffffffffffffffffffffffffffffffffffffffffffffffff8114611338578181101561132b5760405162461bcd60e51b815260206004820152601d60248201527f45524332303a20696e73756666696369656e7420616c6c6f77616e636500000060448201526064016106ef565b6113388484848403611102565b50505050565b73ffffffffffffffffffffffffffffffffffffffff83166113c75760405162461bcd60e51b815260206004820152602560248201527f45524332303a207472616e736665722066726f6d20746865207a65726f20616460448201527f647265737300000000000000000000000000000000000000000000000000000060648201526084016106ef565b73ffffffffffffffffffffffffffffffffffffffff82166114505760405162461bcd60e51b815260206004820152602360248201527f45524332303a207472616e7366657220746f20746865207a65726f206164647260448201527f657373000000000000000000000000000000000000000000000000000000000060648201526084016106ef565b73ffffffffffffffffffffffffffffffffffffffff8316600090815260016020526040902054818110156114ec5760405162461bcd60e51b815260206004820152602660248201527f45524332303a207472616e7366657220616d6f756e742065786365656473206260448201527f616c616e6365000000000000000000000000000000000000000000000000000060648201526084016106ef565b73ffffffffffffffffffffffffffffffffffffffff808516600090815260016020526040808220858503905591851681529081208054849290611530908490611929565b925050819055508273ffffffffffffffffffffffffffffffffffffffff168473ffffffffffffffffffffffffffffffffffffffff167fddf252ad1be2c89b69c2b068fc378daa952ba7f163c4a11628f55a4df523b3ef8460405161159691815260200190565b60405180910390a3611338565b6000805473ffffffffffffffffffffffffffffffffffffffff8381167fffffffffffffffffffffffff0000000000000000000000000000000000000000831681178455604051919092169283917f8be0079c531659141344cd1fd0a4f28419497f9722a3daafe3b4186f6b6457e09190a35050565b73ffffffffffffffffffffffffffffffffffffffff821661167b5760405162461bcd60e51b815260206004820152601f60248201527f45524332303a206d696e7420746f20746865207a65726f20616464726573730060448201526064016106ef565b806003600082825461168d9190611929565b909155505073ffffffffffffffffffffffffffffffffffffffff8216600090815260016020526040812080548392906116c7908490611929565b909155505060405181815273ffffffffffffffffffffffffffffffffffffffff8316906000907fddf252ad1be2c89b69c2b068fc378daa952ba7f163c4a11628f55a4df523b3ef9060200160405180910390a35050565b803573ffffffffffffffffffffffffffffffffffffffff8116811461174257600080fd5b919050565b60006020828403121561175957600080fd5b6117628261171e565b9392505050565b600060208083528351808285015260005b818110156117965785810183015185820160400152820161177a565b818111156117a8576000604083870101525b50601f017fffffffffffffffffffffffffffffffffffffffffffffffffffffffffffffffe016929092016040019392505050565b600080604083850312156117ef57600080fd5b6117f88361171e565b946020939093013593505050565b60008060006060848603121561181b57600080fd5b6118248461171e565b92506118326020850161171e565b9150604084013590509250925092565b60006020828403121561185457600080fd5b5035919050565b6000806040838503121561186e57600080fd5b6118778361171e565b91506118856020840161171e565b90509250929050565b600181811c908216806118a257607f821691505b6020821081036118db577f4e487b7100000000000000000000000000000000000000000000000000000000600052602260045260246000fd5b50919050565b6000602082840312156118f357600080fd5b5051919050565b7f4e487b7100000000000000000000000000000000000000000000000000000000600052601160045260246000fd5b6000821982111561193c5761193c6118fa565b500190565b600082821015611953576119536118fa565b500390565b60008261198e577f4e487b7100000000000000000000000000000000000000000000000000000000600052601260045260246000fd5b500490565b6000817fffffffffffffffffffffffffffffffffffffffffffffffffffffffffffffffff04831182151516156119cb576119cb6118fa565b500290565b6000602082840312156119e257600080fd5b8151801515811461176257600080fdfea2646970667358221220eb1e494d70fb13001703bc6ee198e6e1d026e9b75a42a2a4e9ad4b5663ac1b7664736f6c634300080d0033",
  "immutableReferences": {},
  "source": "// SPDX-License-Identifier: MIT\n///@author Adam Korchane - Alyra\npragma solidity 0.8.13;\n\nimport \"@openzeppelin/contracts/access/Ownable.sol\";\nimport \"@openzeppelin/contracts/token/ERC20/ERC20.sol\";\nimport \"@openzeppelin/contracts/token/ERC20/IERC20.sol\";\n\ninterface IOracle{\n    function getLatestPrice() external view returns (int);\n}\n\ncontract Staking is Ownable, ERC20{\nIOracle oracle;\n    IERC20 dai;\n    uint rate = 3;\n    uint lPTrate = 2;\n    mapping(address => uint) Balance;\n    mapping(address => uint) DepositDate;\n\n    event Staked(address indexed _from, uint _value);\n    event UnStaked(address indexed _from, uint _value);\n\n    constructor(address _addr) ERC20(\"LpToken\", \"LpT\"){\n        oracle = IOracle(_addr);\n        dai = IERC20(0x4F96Fe3b7A6Cf9725f59d353F723c1bDb64CA6Aa);\n    }\n\n    /**\n    *@param amount is the amount we want to stake\n    *@dev user has to approve contract before\n    *@notice Stake your token and make you earn 3% APR and 2% of LpTokens\n    */\n    function stake(uint amount)external{\n        require(dai.balanceOf(msg.sender) >= amount, \"Dai balance is too low\");\n        require(getAllowanceOf(msg.sender) >= amount, \"Contract not approved\");\n        dai.transferFrom(msg.sender, address(this), amount);\n        Balance[msg.sender] = amount;\n        DepositDate[msg.sender] = block.timestamp;\n        emit Staked(msg.sender, amount);\n    }\n\n    /**\n    *@notice Unstake your tokens + 3%/year + 2% of LpTokens\n    *@dev I used Chainlink because it was required by the specifications, but\n    *because Dai is a stable coin and solidity does not support float numbers\n    *in this case it will only multiply by 1 (and not 1.010...)\n    */\n    function unStake()external{\n        require(Balance[msg.sender] > 0, \"No dai staked\");\n        uint timeStaked = block.timestamp - DepositDate[msg.sender];\n        uint interest = (((Balance[msg.sender] * rate) / 3153600000) * timeStaked) * (1 +(uint(oracle.getLatestPrice())/(1*10**9)));\n        uint lptInterest = ((Balance[msg.sender] * lPTrate) / 3153600000) * timeStaked;\n        uint balance = Balance[msg.sender];\n        Balance[msg.sender] = 0;\n        _mint(msg.sender, lptInterest);\n        dai.transfer(msg.sender, (balance + interest));\n        emit UnStaked(msg.sender, balance);\n    }\n\n    //Getters\n\n    /**\n    *@param _addr is the address we want to get interests of\n    *@return winned interests of _addr\n    */\n    function getInterests(address _addr)public view returns(uint){\n        require(Balance[_addr] > 0, \"No dai staked\");\n        uint timeStaked = block.timestamp - DepositDate[msg.sender];\n        uint interest = (((Balance[msg.sender] * rate) / 3153600000) * timeStaked) * (1 +(uint(oracle.getLatestPrice())/(1*10**9)));\n        return interest;\n    }\n\n    /**\n    *@param _addr is the address we want to get Lp tokens interests of\n    *@return winned Lp tokens interests of _addr\n    */\n    function getLpInterests(address _addr)public view returns(uint){\n        require(Balance[_addr] > 0, \"No dai staked\");\n        uint timeStaked = block.timestamp - DepositDate[msg.sender];\n        uint lptInterest = ((Balance[msg.sender] * lPTrate) / 3153600000) * timeStaked;\n        return lptInterest;\n    }\n\n    /**\n    *@return the amount of dai stored in the contract\n    */\n    function getContractBalance()external view returns(uint){\n        return dai.balanceOf(address(this));\n    }\n\n    /**\n    *@param _addr is the address we want to verify\n    *@return the allowance that approved '_addr' to this contract\n    */\n    function getAllowanceOf(address _addr)public view returns(uint){\n        return dai.allowance(_addr, address(this));\n    }\n\n    /**\n    *@param _addr is the address we want to verify\n    *@return the amount of dai _addr got\n    */\n    function getDaiBalanceOf(address _addr)public view returns(uint){\n        return dai.balanceOf(_addr);\n    }\n\n    /**\n    *@param _addr is the address we want to verify\n    *@return the amount of dai _addr stake in this contract\n    */\n    function stakingOf(address _addr)external view returns(uint){\n        return Balance[_addr];\n    }\n\n    /**\n    *@param _addr is the address we want to verify\n    *@return how much time(in seconds) _addr stake his dai \n    */\n    function getStakingTime(address _addr)external view returns(uint){\n        return uint(oracle.getLatestPrice()) - DepositDate[_addr];\n    }\n\n    /**\n    *@param _addr is the address we want to verify\n    *@return the total of dai + lpTokens this contract own to _addr \n    */\n    function gainsOf(address _addr)external view returns(uint){\n        return Balance[_addr] + getInterests(_addr) + getLpInterests(_addr);\n    }\n\n}",
  "sourcePath": "/home/amsteradams/developpement/Solidity-defi/Staking/contracts/Staking.sol",
  "compiler": {
    "name": "solc",
    "version": "0.8.13+commit.abaa5c0e.Emscripten.clang"
  },
  "schemaVersion": "3.4.6",
  "updatedAt": "2022-05-02T12:45:15.063Z",
  "networkType": "ethereum",
  "devdoc": {
    "kind": "dev",
    "methods": {
      "allowance(address,address)": {
        "details": "See {IERC20-allowance}."
      },
      "approve(address,uint256)": {
        "details": "See {IERC20-approve}. NOTE: If `amount` is the maximum `uint256`, the allowance is not updated on `transferFrom`. This is semantically equivalent to an infinite approval. Requirements: - `spender` cannot be the zero address."
      },
      "balanceOf(address)": {
        "details": "See {IERC20-balanceOf}."
      },
      "decimals()": {
        "details": "Returns the number of decimals used to get its user representation. For example, if `decimals` equals `2`, a balance of `505` tokens should be displayed to a user as `5.05` (`505 / 10 ** 2`). Tokens usually opt for a value of 18, imitating the relationship between Ether and Wei. This is the value {ERC20} uses, unless this function is overridden; NOTE: This information is only used for _display_ purposes: it in no way affects any of the arithmetic of the contract, including {IERC20-balanceOf} and {IERC20-transfer}."
      },
      "decreaseAllowance(address,uint256)": {
        "details": "Atomically decreases the allowance granted to `spender` by the caller. This is an alternative to {approve} that can be used as a mitigation for problems described in {IERC20-approve}. Emits an {Approval} event indicating the updated allowance. Requirements: - `spender` cannot be the zero address. - `spender` must have allowance for the caller of at least `subtractedValue`."
      },
      "gainsOf(address)": {
        "params": {
          "_addr": "is the address we want to verify"
        },
        "returns": {
          "_0": "the total of dai + lpTokens this contract own to _addr "
        }
      },
      "getAllowanceOf(address)": {
        "params": {
          "_addr": "is the address we want to verify"
        },
        "returns": {
          "_0": "the allowance that approved '_addr' to this contract"
        }
      },
      "getContractBalance()": {
        "returns": {
          "_0": "the amount of dai stored in the contract"
        }
      },
      "getDaiBalanceOf(address)": {
        "params": {
          "_addr": "is the address we want to verify"
        },
        "returns": {
          "_0": "the amount of dai _addr got"
        }
      },
      "getInterests(address)": {
        "params": {
          "_addr": "is the address we want to get interests of"
        },
        "returns": {
          "_0": "winned interests of _addr"
        }
      },
      "getLpInterests(address)": {
        "params": {
          "_addr": "is the address we want to get Lp tokens interests of"
        },
        "returns": {
          "_0": "winned Lp tokens interests of _addr"
        }
      },
      "getStakingTime(address)": {
        "params": {
          "_addr": "is the address we want to verify"
        },
        "returns": {
          "_0": "how much time(in seconds) _addr stake his dai "
        }
      },
      "increaseAllowance(address,uint256)": {
        "details": "Atomically increases the allowance granted to `spender` by the caller. This is an alternative to {approve} that can be used as a mitigation for problems described in {IERC20-approve}. Emits an {Approval} event indicating the updated allowance. Requirements: - `spender` cannot be the zero address."
      },
      "name()": {
        "details": "Returns the name of the token."
      },
      "owner()": {
        "details": "Returns the address of the current owner."
      },
      "renounceOwnership()": {
        "details": "Leaves the contract without owner. It will not be possible to call `onlyOwner` functions anymore. Can only be called by the current owner. NOTE: Renouncing ownership will leave the contract without an owner, thereby removing any functionality that is only available to the owner."
      },
      "stake(uint256)": {
        "details": "user has to approve contract before",
        "params": {
          "amount": "is the amount we want to stake"
        }
      },
      "stakingOf(address)": {
        "params": {
          "_addr": "is the address we want to verify"
        },
        "returns": {
          "_0": "the amount of dai _addr stake in this contract"
        }
      },
      "symbol()": {
        "details": "Returns the symbol of the token, usually a shorter version of the name."
      },
      "totalSupply()": {
        "details": "See {IERC20-totalSupply}."
      },
      "transfer(address,uint256)": {
        "details": "See {IERC20-transfer}. Requirements: - `to` cannot be the zero address. - the caller must have a balance of at least `amount`."
      },
      "transferFrom(address,address,uint256)": {
        "details": "See {IERC20-transferFrom}. Emits an {Approval} event indicating the updated allowance. This is not required by the EIP. See the note at the beginning of {ERC20}. NOTE: Does not update the allowance if the current allowance is the maximum `uint256`. Requirements: - `from` and `to` cannot be the zero address. - `from` must have a balance of at least `amount`. - the caller must have allowance for ``from``'s tokens of at least `amount`."
      },
      "transferOwnership(address)": {
        "details": "Transfers ownership of the contract to a new account (`newOwner`). Can only be called by the current owner."
      },
      "unStake()": {
        "details": "I used Chainlink because it was required by the specifications, but because Dai is a stable coin and solidity does not support float numbers in this case it will only multiply by 1 (and not 1.010...)"
      }
    },
    "version": 1
  },
  "userdoc": {
    "kind": "user",
    "methods": {
      "stake(uint256)": {
        "notice": "Stake your token and make you earn 3% APR and 2% of LpTokens"
      },
      "unStake()": {
        "notice": "Unstake your tokens + 3%/year + 2% of LpTokens"
      }
    },
    "version": 1
  }
}