{
  "contractName": "Staking",
  "abi": [
    {
      "inputs": [
        {
          "internalType": "address",
          "name": "_addr",
          "type": "address"
        }
      ],
      "stateMutability": "nonpayable",
      "type": "constructor"
    },
    {
      "anonymous": false,
      "inputs": [
        {
          "indexed": true,
          "internalType": "address",
          "name": "owner",
          "type": "address"
        },
        {
          "indexed": true,
          "internalType": "address",
          "name": "spender",
          "type": "address"
        },
        {
          "indexed": false,
          "internalType": "uint256",
          "name": "value",
          "type": "uint256"
        }
      ],
      "name": "Approval",
      "type": "event"
    },
    {
      "anonymous": false,
      "inputs": [
        {
          "indexed": true,
          "internalType": "address",
          "name": "_from",
          "type": "address"
        },
        {
          "indexed": false,
          "internalType": "uint256",
          "name": "_value",
          "type": "uint256"
        }
      ],
      "name": "Staked",
      "type": "event"
    },
    {
      "anonymous": false,
      "inputs": [
        {
          "indexed": true,
          "internalType": "address",
          "name": "from",
          "type": "address"
        },
        {
          "indexed": true,
          "internalType": "address",
          "name": "to",
          "type": "address"
        },
        {
          "indexed": false,
          "internalType": "uint256",
          "name": "value",
          "type": "uint256"
        }
      ],
      "name": "Transfer",
      "type": "event"
    },
    {
      "anonymous": false,
      "inputs": [
        {
          "indexed": true,
          "internalType": "address",
          "name": "_from",
          "type": "address"
        },
        {
          "indexed": false,
          "internalType": "uint256",
          "name": "_value",
          "type": "uint256"
        }
      ],
      "name": "UnStaked",
      "type": "event"
    },
    {
      "inputs": [
        {
          "internalType": "address",
          "name": "owner",
          "type": "address"
        },
        {
          "internalType": "address",
          "name": "spender",
          "type": "address"
        }
      ],
      "name": "allowance",
      "outputs": [
        {
          "internalType": "uint256",
          "name": "",
          "type": "uint256"
        }
      ],
      "stateMutability": "view",
      "type": "function",
      "constant": true
    },
    {
      "inputs": [
        {
          "internalType": "address",
          "name": "spender",
          "type": "address"
        },
        {
          "internalType": "uint256",
          "name": "amount",
          "type": "uint256"
        }
      ],
      "name": "approve",
      "outputs": [
        {
          "internalType": "bool",
          "name": "",
          "type": "bool"
        }
      ],
      "stateMutability": "nonpayable",
      "type": "function"
    },
    {
      "inputs": [
        {
          "internalType": "address",
          "name": "account",
          "type": "address"
        }
      ],
      "name": "balanceOf",
      "outputs": [
        {
          "internalType": "uint256",
          "name": "",
          "type": "uint256"
        }
      ],
      "stateMutability": "view",
      "type": "function",
      "constant": true
    },
    {
      "inputs": [],
      "name": "decimals",
      "outputs": [
        {
          "internalType": "uint8",
          "name": "",
          "type": "uint8"
        }
      ],
      "stateMutability": "view",
      "type": "function",
      "constant": true
    },
    {
      "inputs": [
        {
          "internalType": "address",
          "name": "spender",
          "type": "address"
        },
        {
          "internalType": "uint256",
          "name": "subtractedValue",
          "type": "uint256"
        }
      ],
      "name": "decreaseAllowance",
      "outputs": [
        {
          "internalType": "bool",
          "name": "",
          "type": "bool"
        }
      ],
      "stateMutability": "nonpayable",
      "type": "function"
    },
    {
      "inputs": [
        {
          "internalType": "address",
          "name": "spender",
          "type": "address"
        },
        {
          "internalType": "uint256",
          "name": "addedValue",
          "type": "uint256"
        }
      ],
      "name": "increaseAllowance",
      "outputs": [
        {
          "internalType": "bool",
          "name": "",
          "type": "bool"
        }
      ],
      "stateMutability": "nonpayable",
      "type": "function"
    },
    {
      "inputs": [],
      "name": "name",
      "outputs": [
        {
          "internalType": "string",
          "name": "",
          "type": "string"
        }
      ],
      "stateMutability": "view",
      "type": "function",
      "constant": true
    },
    {
      "inputs": [],
      "name": "symbol",
      "outputs": [
        {
          "internalType": "string",
          "name": "",
          "type": "string"
        }
      ],
      "stateMutability": "view",
      "type": "function",
      "constant": true
    },
    {
      "inputs": [],
      "name": "totalSupply",
      "outputs": [
        {
          "internalType": "uint256",
          "name": "",
          "type": "uint256"
        }
      ],
      "stateMutability": "view",
      "type": "function",
      "constant": true
    },
    {
      "inputs": [
        {
          "internalType": "address",
          "name": "to",
          "type": "address"
        },
        {
          "internalType": "uint256",
          "name": "amount",
          "type": "uint256"
        }
      ],
      "name": "transfer",
      "outputs": [
        {
          "internalType": "bool",
          "name": "",
          "type": "bool"
        }
      ],
      "stateMutability": "nonpayable",
      "type": "function"
    },
    {
      "inputs": [
        {
          "internalType": "address",
          "name": "from",
          "type": "address"
        },
        {
          "internalType": "address",
          "name": "to",
          "type": "address"
        },
        {
          "internalType": "uint256",
          "name": "amount",
          "type": "uint256"
        }
      ],
      "name": "transferFrom",
      "outputs": [
        {
          "internalType": "bool",
          "name": "",
          "type": "bool"
        }
      ],
      "stateMutability": "nonpayable",
      "type": "function"
    },
    {
      "inputs": [
        {
          "internalType": "address",
          "name": "_addr",
          "type": "address"
        },
        {
          "internalType": "uint256",
          "name": "amount",
          "type": "uint256"
        }
      ],
      "name": "stake",
      "outputs": [],
      "stateMutability": "nonpayable",
      "type": "function"
    },
    {
      "inputs": [
        {
          "internalType": "address",
          "name": "_token",
          "type": "address"
        }
      ],
      "name": "unStake",
      "outputs": [],
      "stateMutability": "nonpayable",
      "type": "function"
    },
    {
      "inputs": [
        {
          "internalType": "address",
          "name": "_token",
          "type": "address"
        },
        {
          "internalType": "address",
          "name": "_addr",
          "type": "address"
        }
      ],
      "name": "getInterests",
      "outputs": [
        {
          "internalType": "uint256",
          "name": "",
          "type": "uint256"
        }
      ],
      "stateMutability": "view",
      "type": "function",
      "constant": true
    },
    {
      "inputs": [
        {
          "internalType": "address",
          "name": "_token",
          "type": "address"
        },
        {
          "internalType": "address",
          "name": "_addr",
          "type": "address"
        }
      ],
      "name": "getLpInterests",
      "outputs": [
        {
          "internalType": "uint256",
          "name": "",
          "type": "uint256"
        }
      ],
      "stateMutability": "view",
      "type": "function",
      "constant": true
    },
    {
      "inputs": [
        {
          "internalType": "address",
          "name": "_token",
          "type": "address"
        }
      ],
      "name": "getContractBalance",
      "outputs": [
        {
          "internalType": "uint256",
          "name": "",
          "type": "uint256"
        }
      ],
      "stateMutability": "view",
      "type": "function",
      "constant": true
    },
    {
      "inputs": [
        {
          "internalType": "address",
          "name": "_token",
          "type": "address"
        },
        {
          "internalType": "address",
          "name": "_addr",
          "type": "address"
        }
      ],
      "name": "getTokenBalanceOf",
      "outputs": [
        {
          "internalType": "uint256",
          "name": "",
          "type": "uint256"
        }
      ],
      "stateMutability": "view",
      "type": "function",
      "constant": true
    },
    {
      "inputs": [
        {
          "internalType": "address",
          "name": "_token",
          "type": "address"
        },
        {
          "internalType": "address",
          "name": "_addr",
          "type": "address"
        }
      ],
      "name": "stakingOf",
      "outputs": [
        {
          "internalType": "uint256",
          "name": "",
          "type": "uint256"
        }
      ],
      "stateMutability": "view",
      "type": "function",
      "constant": true
    },
    {
      "inputs": [
        {
          "internalType": "address",
          "name": "_token",
          "type": "address"
        },
        {
          "internalType": "address",
          "name": "_addr",
          "type": "address"
        }
      ],
      "name": "getStakingTime",
      "outputs": [
        {
          "internalType": "uint256",
          "name": "",
          "type": "uint256"
        }
      ],
      "stateMutability": "view",
      "type": "function",
      "constant": true
    },
    {
      "inputs": [
        {
          "internalType": "address",
          "name": "_token",
          "type": "address"
        },
        {
          "internalType": "address",
          "name": "_addr",
          "type": "address"
        }
      ],
      "name": "getAllowanceOf",
      "outputs": [
        {
          "internalType": "uint256",
          "name": "",
          "type": "uint256"
        }
      ],
      "stateMutability": "view",
      "type": "function",
      "constant": true
    },
    {
      "inputs": [
        {
          "internalType": "address",
          "name": "_addr",
          "type": "address"
        }
      ],
      "name": "getMyDollarBalance",
      "outputs": [
        {
          "internalType": "uint256",
          "name": "",
          "type": "uint256"
        }
      ],
      "stateMutability": "view",
      "type": "function",
      "constant": true
    }
  ],
  "bytecode": "0x6080604052600360065560026007553480156200001b57600080fd5b5060405162001c9438038062001c948339810160408190526200003e9162000178565b6040518060400160405280600781526020016626382a37b5b2b760c91b81525060405180604001604052806003815260200162131c1560ea1b815250816003908051906020019062000092929190620000d2565b508051620000a8906004906020840190620000d2565b5050600580546001600160a01b0319166001600160a01b03939093169290921790915550620001e6565b828054620000e090620001aa565b90600052602060002090601f0160209004810192826200010457600085556200014f565b82601f106200011f57805160ff19168380011785556200014f565b828001600101855582156200014f579182015b828111156200014f57825182559160200191906001019062000132565b506200015d92915062000161565b5090565b5b808211156200015d576000815560010162000162565b6000602082840312156200018b57600080fd5b81516001600160a01b0381168114620001a357600080fd5b9392505050565b600181811c90821680620001bf57607f821691505b602082108103620001e057634e487b7160e01b600052602260045260246000fd5b50919050565b611a9e80620001f66000396000f3fe608060405234801561001057600080fd5b50600436106101775760003560e01c80635a05be98116100d857806395d89b411161008c578063adc9772e11610066578063adc9772e1461031c578063d0744e3d1461032f578063dd62ed3e1461034257600080fd5b806395d89b41146102ee578063a457c2d7146102f6578063a9059cbb1461030957600080fd5b806370a08231116100bd57806370a082311461029f57806375f9ead4146102c8578063883f7057146102db57600080fd5b80635a05be981461025257806369bcffab1461028c57600080fd5b80632e2ff97f1161012f578063387e494811610114578063387e494814610217578063395093511461022c57806343ab265f1461023f57600080fd5b80632e2ff97f146101f5578063313ce5671461020857600080fd5b806318160ddd1161016057806318160ddd146101bd57806323b872dd146101cf5780632d78b56d146101e257600080fd5b806306fdde031461017c578063095ea7b31461019a575b600080fd5b61018461037b565b60405161019191906117c6565b60405180910390f35b6101ad6101a8366004611850565b61040d565b6040519015158152602001610191565b6002545b604051908152602001610191565b6101ad6101dd36600461187a565b610425565b6101c16101f03660046118b6565b610449565b6101c16102033660046118b6565b6104de565b60405160128152602001610191565b61022a6102253660046118e9565b6106a0565b005b6101ad61023a366004611850565b6109b4565b6101c161024d3660046118e9565b6109f3565b6101c16102603660046118b6565b6001600160a01b0380821660009081526008602090815260408083209386168352929052205492915050565b6101c161029a3660046118b6565b610a7d565b6101c16102ad3660046118e9565b6001600160a01b031660009081526020819052604090205490565b6101c16102d63660046118e9565b610b66565b6101c16102e93660046118b6565b610dfc565b610184610e47565b6101ad610304366004611850565b610e56565b6101ad610317366004611850565b610f00565b61022a61032a366004611850565b610f0e565b6101c161033d3660046118b6565b6111d2565b6101c16103503660046118b6565b6001600160a01b03918216600090815260016020908152604080832093909416825291909152205490565b60606003805461038a90611904565b80601f01602080910402602001604051908101604052809291908181526020018280546103b690611904565b80156104035780601f106103d857610100808354040283529160200191610403565b820191906000526020600020905b8154815290600101906020018083116103e657829003601f168201915b5050505050905090565b60003361041b818585611204565b5060019392505050565b60003361043385828561135c565b61043e85858561140c565b506001949350505050565b6040517fdd62ed3e0000000000000000000000000000000000000000000000000000000081526001600160a01b0382811660048301523060248301526000919084169063dd62ed3e906044015b602060405180830381865afa1580156104b3573d6000803e3d6000fd5b505050506040513d601f19601f820116820180604052508101906104d79190611957565b9392505050565b6001600160a01b0380821660009081526008602090815260408083209386168352929052908120546105575760405162461bcd60e51b815260206004820152601060248201527f4e6f20746f6b656e73207374616b65640000000000000000000000000000000060448201526064015b60405180910390fd5b3360009081526009602090815260408083206001600160a01b0387168452909152812054610585904261199f565b600554909150600090633b9aca00906001600160a01b03166316345f186105ab88611623565b6040517fffffffff0000000000000000000000000000000000000000000000000000000060e084901b1681526001600160a01b039091166004820152602401602060405180830381865afa158015610607573d6000803e3d6000fd5b505050506040513d601f19601f8201168201806040525081019061062b9190611957565b61063591906119b6565b6106409060016119f1565b6006543360009081526008602090815260408083206001600160a01b038b168452909152902054849163bbf81e00916106799190611a09565b61068391906119b6565b61068d9190611a09565b6106979190611a09565b95945050505050565b3360009081526008602090815260408083206001600160a01b03851684529091529020546107105760405162461bcd60e51b815260206004820152601060248201527f4e6f20746f6b656e73207374616b656400000000000000000000000000000000604482015260640161054e565b3360009081526009602090815260408083206001600160a01b038516845290915281205461073e904261199f565b600554909150600090633b9aca00906001600160a01b03166316345f1861076486611623565b6040517fffffffff0000000000000000000000000000000000000000000000000000000060e084901b1681526001600160a01b039091166004820152602401602060405180830381865afa1580156107c0573d6000803e3d6000fd5b505050506040513d601f19601f820116820180604052508101906107e49190611957565b6107ee91906119b6565b6107f99060016119f1565b6006543360009081526008602090815260408083206001600160a01b0389168452909152902054849163bbf81e00916108329190611a09565b61083c91906119b6565b6108469190611a09565b6108509190611a09565b6007543360009081526008602090815260408083206001600160a01b038916845290915281205492935091849163bbf81e009161088d9190611a09565b61089791906119b6565b6108a19190611a09565b3360008181526008602090815260408083206001600160a01b038a168452909152812080549190559192506108d690836116e7565b6001600160a01b03851663a9059cbb336108f086856119f1565b6040517fffffffff0000000000000000000000000000000000000000000000000000000060e085901b1681526001600160a01b03909216600483015260248201526044016020604051808303816000875af1158015610953573d6000803e3d6000fd5b505050506040513d601f19601f820116820180604052508101906109779190611a46565b5060405181815233907f79d3df6837cc49ff0e09fd3258e6e45594e0703445bb06825e9d75156eaee8f09060200160405180910390a25050505050565b3360008181526001602090815260408083206001600160a01b038716845290915281205490919061041b90829086906109ee9087906119f1565b611204565b6040517f70a082310000000000000000000000000000000000000000000000000000000081523060048201526000906001600160a01b038316906370a0823190602401602060405180830381865afa158015610a53573d6000803e3d6000fd5b505050506040513d601f19601f82011682018060405250810190610a779190611957565b92915050565b6001600160a01b038082166000908152600860209081526040808320938616835292905290812054610af15760405162461bcd60e51b815260206004820152601060248201527f4e6f20746f6b656e73207374616b656400000000000000000000000000000000604482015260640161054e565b3360009081526009602090815260408083206001600160a01b0387168452909152812054610b1f904261199f565b6007543360009081526008602090815260408083206001600160a01b038a16845290915281205492935091839163bbf81e0091610b5c9190611a09565b61068d91906119b6565b6001600160a01b0381166000908152600860209081526040808320734f96fe3b7a6cf9725f59d353f723c1bdb64ca6aa84529091528120548190610bb390670de0b6b3a7640000906119b6565b6005549091506000906305f5e100906001600160a01b03166316345f18610bed73f00503d6771d820c94066a42edbcc9428652c518611623565b6040517fffffffff0000000000000000000000000000000000000000000000000000000060e084901b1681526001600160a01b039091166004820152602401602060405180830381865afa158015610c49573d6000803e3d6000fd5b505050506040513d601f19601f82011682018060405250810190610c6d9190611957565b610c7791906119b6565b6001600160a01b038516600090815260086020908152604080832073f00503d6771d820c94066a42edbcc9428652c5188452909152902054610cc290670de0b6b3a7640000906119b6565b610ccc9190611a09565b6005549091506000906305f5e100906001600160a01b03166316345f18610d0673e19b09e0a62adaec3e1dc59cbe66bda0ec8a1faa611623565b6040517fffffffff0000000000000000000000000000000000000000000000000000000060e084901b1681526001600160a01b039091166004820152602401602060405180830381865afa158015610d62573d6000803e3d6000fd5b505050506040513d601f19601f82011682018060405250810190610d869190611957565b610d9091906119b6565b6001600160a01b038616600090815260086020908152604080832073e19b09e0a62adaec3e1dc59cbe66bda0ec8a1faa8452909152902054610ddb90670de0b6b3a7640000906119b6565b610de59190611a09565b905082610df283836119f1565b61069791906119f1565b6040517f70a082310000000000000000000000000000000000000000000000000000000081526001600160a01b038281166004830152600091908416906370a0823190602401610496565b60606004805461038a90611904565b3360008181526001602090815260408083206001600160a01b038716845290915281205490919083811015610ef35760405162461bcd60e51b815260206004820152602560248201527f45524332303a2064656372656173656420616c6c6f77616e63652062656c6f7760448201527f207a65726f000000000000000000000000000000000000000000000000000000606482015260840161054e565b61043e8286868403611204565b60003361041b81858561140c565b3360009081526008602090815260408083206001600160a01b038616845290915290205415610fa55760405162461bcd60e51b815260206004820152602860248201527f596f75206861766520746f207769746864726177206265666f7265207374616b60448201527f696e67206d6f7265000000000000000000000000000000000000000000000000606482015260840161054e565b6040517f70a0823100000000000000000000000000000000000000000000000000000000815233600482015281906001600160a01b038416906370a0823190602401602060405180830381865afa158015611004573d6000803e3d6000fd5b505050506040513d601f19601f820116820180604052508101906110289190611957565b10156110765760405162461bcd60e51b815260206004820152601260248201527f42616c616e636520697320746f6f206c6f770000000000000000000000000000604482015260640161054e565b806110818333610449565b10156110cf5760405162461bcd60e51b815260206004820152601560248201527f436f6e7472616374206e6f7420617070726f7665640000000000000000000000604482015260640161054e565b6040517f23b872dd000000000000000000000000000000000000000000000000000000008152336004820152306024820152604481018290526001600160a01b038316906323b872dd906064016020604051808303816000875af115801561113b573d6000803e3d6000fd5b505050506040513d601f19601f8201168201806040525081019061115f9190611a46565b503360008181526008602090815260408083206001600160a01b0387168085529083528184208690558484526009835281842090845282529182902042905590518381527f9e71bc8eea02a63969f509818f2dafb9254532904319f9dbda79b67bd34a5f3d910160405180910390a25050565b6001600160a01b0380821660009081526009602090815260408083209386168352929052908120546104d7904261199f565b6001600160a01b03831661127f5760405162461bcd60e51b8152602060048201526024808201527f45524332303a20617070726f76652066726f6d20746865207a65726f2061646460448201527f7265737300000000000000000000000000000000000000000000000000000000606482015260840161054e565b6001600160a01b0382166112fb5760405162461bcd60e51b815260206004820152602260248201527f45524332303a20617070726f766520746f20746865207a65726f20616464726560448201527f7373000000000000000000000000000000000000000000000000000000000000606482015260840161054e565b6001600160a01b0383811660008181526001602090815260408083209487168084529482529182902085905590518481527f8c5be1e5ebec7d5bd14f71427d1e84f3dd0314c0f7b2291e5b200ac8c7c3b925910160405180910390a3505050565b6001600160a01b038381166000908152600160209081526040808320938616835292905220547fffffffffffffffffffffffffffffffffffffffffffffffffffffffffffffffff811461140657818110156113f95760405162461bcd60e51b815260206004820152601d60248201527f45524332303a20696e73756666696369656e7420616c6c6f77616e6365000000604482015260640161054e565b6114068484848403611204565b50505050565b6001600160a01b0383166114885760405162461bcd60e51b815260206004820152602560248201527f45524332303a207472616e736665722066726f6d20746865207a65726f20616460448201527f6472657373000000000000000000000000000000000000000000000000000000606482015260840161054e565b6001600160a01b0382166115045760405162461bcd60e51b815260206004820152602360248201527f45524332303a207472616e7366657220746f20746865207a65726f206164647260448201527f6573730000000000000000000000000000000000000000000000000000000000606482015260840161054e565b6001600160a01b038316600090815260208190526040902054818110156115935760405162461bcd60e51b815260206004820152602660248201527f45524332303a207472616e7366657220616d6f756e742065786365656473206260448201527f616c616e63650000000000000000000000000000000000000000000000000000606482015260840161054e565b6001600160a01b038085166000908152602081905260408082208585039055918516815290812080548492906115ca9084906119f1565b92505081905550826001600160a01b0316846001600160a01b03167fddf252ad1be2c89b69c2b068fc378daa952ba7f163c4a11628f55a4df523b3ef8460405161161691815260200190565b60405180910390a3611406565b60006001600160a01b038216734f96fe3b7a6cf9725f59d353f723c1bdb64ca6aa03611664575073777a68032a88e5a84678a77af2cd65a7b3c0775a919050565b6001600160a01b03821673f00503d6771d820c94066a42edbcc9428652c518036116a35750738993ed705cdf5e84d0a3b754b5ee0e1783fcdf16919050565b6001600160a01b03821673e19b09e0a62adaec3e1dc59cbe66bda0ec8a1faa03610177575073396c5e36dd0a0f5a5d33dae44368d4193f69a1f0919050565b919050565b6001600160a01b03821661173d5760405162461bcd60e51b815260206004820152601f60248201527f45524332303a206d696e7420746f20746865207a65726f206164647265737300604482015260640161054e565b806002600082825461174f91906119f1565b90915550506001600160a01b0382166000908152602081905260408120805483929061177c9084906119f1565b90915550506040518181526001600160a01b038316906000907fddf252ad1be2c89b69c2b068fc378daa952ba7f163c4a11628f55a4df523b3ef9060200160405180910390a35050565b600060208083528351808285015260005b818110156117f3578581018301518582016040015282016117d7565b81811115611805576000604083870101525b50601f017fffffffffffffffffffffffffffffffffffffffffffffffffffffffffffffffe016929092016040019392505050565b80356001600160a01b03811681146116e257600080fd5b6000806040838503121561186357600080fd5b61186c83611839565b946020939093013593505050565b60008060006060848603121561188f57600080fd5b61189884611839565b92506118a660208501611839565b9150604084013590509250925092565b600080604083850312156118c957600080fd5b6118d283611839565b91506118e060208401611839565b90509250929050565b6000602082840312156118fb57600080fd5b6104d782611839565b600181811c9082168061191857607f821691505b602082108103611951577f4e487b7100000000000000000000000000000000000000000000000000000000600052602260045260246000fd5b50919050565b60006020828403121561196957600080fd5b5051919050565b7f4e487b7100000000000000000000000000000000000000000000000000000000600052601160045260246000fd5b6000828210156119b1576119b1611970565b500390565b6000826119ec577f4e487b7100000000000000000000000000000000000000000000000000000000600052601260045260246000fd5b500490565b60008219821115611a0457611a04611970565b500190565b6000817fffffffffffffffffffffffffffffffffffffffffffffffffffffffffffffffff0483118215151615611a4157611a41611970565b500290565b600060208284031215611a5857600080fd5b815180151581146104d757600080fdfea26469706673582212201dbf5df19bceac94e86ce1124384c09e84b357fee032b96e18d24a79f6037a4f64736f6c634300080d0033",
  "immutableReferences": {},
  "source": "// SPDX-License-Identifier: MIT\n///@author Adam Korchane - Alyra\npragma solidity 0.8.13;\n\nimport \"@openzeppelin/contracts/token/ERC20/ERC20.sol\";\nimport \"@openzeppelin/contracts/token/ERC20/IERC20.sol\";\n\ninterface IOracle{\n    function getLatestPrice(address _addr) external view returns (int);\n}\n\ncontract Staking is ERC20{\n    IOracle oracle;\n    uint rate = 3;\n    uint lPTrate = 2;\n    mapping(address => mapping(address => uint)) Balance; //guy => token => balance\n    mapping(address => mapping(address => uint)) DepositDate; //guy => token => timestamp\n\n    event Staked(address indexed _from, uint _value);\n    event UnStaked(address indexed _from, uint _value);\n\n    constructor(address _addr) ERC20(\"LpToken\", \"LpT\"){\n        oracle = IOracle(_addr);\n    }\n\n    /**\n    *@param amount is the amount we want to stake\n    *@param _addr is the token we want to stake\n    *@dev user has to approve contract before\n    *@notice Stake your token and make you earn 3% APR and 2% of LpTokens\n    */\n    function stake(address _addr, uint amount)external{\n        require(Balance[msg.sender][_addr] == 0, \"You have to withdraw before staking more\");\n        require(IERC20(_addr).balanceOf(msg.sender) >= amount, \"Balance is too low\");\n        require(getAllowanceOf(_addr, msg.sender) >= amount, \"Contract not approved\");\n        IERC20(_addr).transferFrom(msg.sender, address(this), amount);\n        Balance[msg.sender][_addr] = amount;\n        DepositDate[msg.sender][_addr] = block.timestamp;\n        emit Staked(msg.sender, amount);\n    }\n\n    /**\n    *@param _token is wich token user want to Unstake\n    *@notice Unstake your tokens + 3%/year + 2% of LpTokens\n    */\n    function unStake(address _token)external{\n        require(Balance[msg.sender][_token] > 0, \"No tokens staked\");\n        uint timeStaked = block.timestamp - DepositDate[msg.sender][_token];\n\n        uint interest = (((Balance[msg.sender][_token] * rate) / 3153600000) * timeStaked) * (1 +(uint(oracle.getLatestPrice(getOracleAddress(_token)))/(1*10**9)));\n        uint lptInterest = ((Balance[msg.sender][_token] * lPTrate) / 3153600000) * timeStaked;\n        uint balance = Balance[msg.sender][_token];\n        Balance[msg.sender][_token] = 0;\n        _mint(msg.sender, lptInterest);\n        IERC20(_token).transfer(msg.sender, (balance + interest));\n        emit UnStaked(msg.sender, balance);\n    }\n\n    //Interests Getters : \n    /**\n    *@param _token is the tokens we want to get interests of\n    *@param _addr is the address we want to get interests of\n    *@return winned interests of _addr\n    */\n    function getInterests(address _token ,address _addr)public view returns(uint){\n        require(Balance[_addr][_token] > 0, \"No tokens staked\");\n        uint timeStaked = block.timestamp - DepositDate[msg.sender][_token];\n        uint interest = (((Balance[msg.sender][_token] * rate) / 3153600000) * timeStaked) * (1 +(uint(oracle.getLatestPrice(getOracleAddress(_token)))/(1*10**9)));\n        return interest;\n    }\n\n    /**\n    *@param _token is the tokens we want to get interests of\n    *@param _addr is the address we want to get Lp tokens interests of\n    *@return winned Lp tokens interests of _addr\n    */\n    function getLpInterests(address _token ,address _addr)public view returns(uint){\n        require(Balance[_addr][_token] > 0, \"No tokens staked\");\n        uint timeStaked = block.timestamp - DepositDate[msg.sender][_token];\n        uint lptInterest = ((Balance[msg.sender][_token] * lPTrate) / 3153600000) * timeStaked;\n        return lptInterest;\n    }\n\n    //Getters : \n\n    /**\n    *@param _token to get the contract's balance of this token\n    *@return the amount of dai stored in the contract\n    */\n    function getContractBalance(address _token)external view returns(uint){\n        return IERC20(_token).balanceOf(address(this));\n    }\n\n    /**\n    *@param _token is the token we want to get the balance\n    *@param _addr is the address we want to verify\n    *@return the amount of dai _addr got\n    */\n    function getTokenBalanceOf(address _token ,address _addr)public view returns(uint){\n        return IERC20(_token).balanceOf(_addr);\n    }\n\n    /**\n    *@param _token is the token we want to get the staking\n    *@param _addr is the address we want to verify\n    *@return the amount of dai _addr stake in this contract\n    */\n    function stakingOf(address _token, address _addr)public view returns(uint){\n        return Balance[_addr][_token];\n    }\n\n    /**\n    *@param _addr is the address we want to verify\n    *@return how much time(in seconds) _addr stake his dai \n    */\n    function getStakingTime(address  _token, address _addr)external view returns(uint){\n        return block.timestamp - DepositDate[_addr][_token];\n    }\n\n    /**\n    *@param _token is wich token we want to check allowance of\n    *@param _addr is the address we want to verify\n    *@return the allowance that approved '_addr' to this contract\n    */\n    function getAllowanceOf(address _token, address _addr)public view returns(uint){\n        return IERC20(_token).allowance(_addr, address(this));\n    }\n    /**\n    *@param _addr is the guy we want to get the total balance\n    *@return amount locked in the contract in dollar\n    */\n    function getMyDollarBalance(address _addr)external view returns(uint){\n        uint daiBal = (stakingOf(0x4F96Fe3b7A6Cf9725f59d353F723c1bDb64CA6Aa, _addr) / 10**18);\n        uint bnbBal = (stakingOf(0xF00503d6771d820C94066a42EdbCc9428652C518, _addr) / 10**18) * (uint(oracle.getLatestPrice(getOracleAddress(0xF00503d6771d820C94066a42EdbCc9428652C518)))/(10**8));\n        uint linkBal = (stakingOf(0xe19b09e0a62aDaEc3E1DC59CbE66bDA0Ec8A1FAa, _addr) / 10**18) * (uint(oracle.getLatestPrice(getOracleAddress(0xe19b09e0a62aDaEc3E1DC59CbE66bDA0Ec8A1FAa)))/(10**8));\n\n        return linkBal + bnbBal + daiBal;\n    }\n\n    //Utils\n\n    /**\n    *@param _token is the token we want to get the price\n    *@dev return token's correspondant chainlink's data feeder\n    */\n    function getOracleAddress(address _token)private pure returns(address){\n        if(_token == 0x4F96Fe3b7A6Cf9725f59d353F723c1bDb64CA6Aa){\n            return 0x777A68032a88E5A84678A77Af2CD65A7b3c0775a;\n            }\n        else if(_token == 0xF00503d6771d820C94066a42EdbCc9428652C518){\n            return 0x8993ED705cdf5e84D0a3B754b5Ee0e1783fcdF16;\n            }\n        else if(_token == 0xe19b09e0a62aDaEc3E1DC59CbE66bDA0Ec8A1FAa){\n            return 0x396c5E36DD0a0F5a5D33dae44368D4193f69a1F0;\n            }\n        else{\n            revert();\n            }\n    }\n}",
  "sourcePath": "/home/amsteradams/developpement/Solidity-defi/Staking/contracts/Staking.sol",
  "compiler": {
    "name": "solc",
    "version": "0.8.13+commit.abaa5c0e.Emscripten.clang"
  },
  "schemaVersion": "3.4.6",
  "updatedAt": "2022-05-12T11:30:30.551Z",
  "networkType": "ethereum",
  "devdoc": {
    "kind": "dev",
    "methods": {
      "allowance(address,address)": {
        "details": "See {IERC20-allowance}."
      },
      "approve(address,uint256)": {
        "details": "See {IERC20-approve}. NOTE: If `amount` is the maximum `uint256`, the allowance is not updated on `transferFrom`. This is semantically equivalent to an infinite approval. Requirements: - `spender` cannot be the zero address."
      },
      "balanceOf(address)": {
        "details": "See {IERC20-balanceOf}."
      },
      "decimals()": {
        "details": "Returns the number of decimals used to get its user representation. For example, if `decimals` equals `2`, a balance of `505` tokens should be displayed to a user as `5.05` (`505 / 10 ** 2`). Tokens usually opt for a value of 18, imitating the relationship between Ether and Wei. This is the value {ERC20} uses, unless this function is overridden; NOTE: This information is only used for _display_ purposes: it in no way affects any of the arithmetic of the contract, including {IERC20-balanceOf} and {IERC20-transfer}."
      },
      "decreaseAllowance(address,uint256)": {
        "details": "Atomically decreases the allowance granted to `spender` by the caller. This is an alternative to {approve} that can be used as a mitigation for problems described in {IERC20-approve}. Emits an {Approval} event indicating the updated allowance. Requirements: - `spender` cannot be the zero address. - `spender` must have allowance for the caller of at least `subtractedValue`."
      },
      "getAllowanceOf(address,address)": {
        "params": {
          "_addr": "is the address we want to verify",
          "_token": "is wich token we want to check allowance of"
        },
        "returns": {
          "_0": "the allowance that approved '_addr' to this contract"
        }
      },
      "getContractBalance(address)": {
        "params": {
          "_token": "to get the contract's balance of this token"
        },
        "returns": {
          "_0": "the amount of dai stored in the contract"
        }
      },
      "getInterests(address,address)": {
        "params": {
          "_addr": "is the address we want to get interests of",
          "_token": "is the tokens we want to get interests of"
        },
        "returns": {
          "_0": "winned interests of _addr"
        }
      },
      "getLpInterests(address,address)": {
        "params": {
          "_addr": "is the address we want to get Lp tokens interests of",
          "_token": "is the tokens we want to get interests of"
        },
        "returns": {
          "_0": "winned Lp tokens interests of _addr"
        }
      },
      "getMyDollarBalance(address)": {
        "params": {
          "_addr": "is the guy we want to get the total balance"
        },
        "returns": {
          "_0": "amount locked in the contract in dollar"
        }
      },
      "getStakingTime(address,address)": {
        "params": {
          "_addr": "is the address we want to verify"
        },
        "returns": {
          "_0": "how much time(in seconds) _addr stake his dai "
        }
      },
      "getTokenBalanceOf(address,address)": {
        "params": {
          "_addr": "is the address we want to verify",
          "_token": "is the token we want to get the balance"
        },
        "returns": {
          "_0": "the amount of dai _addr got"
        }
      },
      "increaseAllowance(address,uint256)": {
        "details": "Atomically increases the allowance granted to `spender` by the caller. This is an alternative to {approve} that can be used as a mitigation for problems described in {IERC20-approve}. Emits an {Approval} event indicating the updated allowance. Requirements: - `spender` cannot be the zero address."
      },
      "name()": {
        "details": "Returns the name of the token."
      },
      "stake(address,uint256)": {
        "details": "user has to approve contract before",
        "params": {
          "_addr": "is the token we want to stake",
          "amount": "is the amount we want to stake"
        }
      },
      "stakingOf(address,address)": {
        "params": {
          "_addr": "is the address we want to verify",
          "_token": "is the token we want to get the staking"
        },
        "returns": {
          "_0": "the amount of dai _addr stake in this contract"
        }
      },
      "symbol()": {
        "details": "Returns the symbol of the token, usually a shorter version of the name."
      },
      "totalSupply()": {
        "details": "See {IERC20-totalSupply}."
      },
      "transfer(address,uint256)": {
        "details": "See {IERC20-transfer}. Requirements: - `to` cannot be the zero address. - the caller must have a balance of at least `amount`."
      },
      "transferFrom(address,address,uint256)": {
        "details": "See {IERC20-transferFrom}. Emits an {Approval} event indicating the updated allowance. This is not required by the EIP. See the note at the beginning of {ERC20}. NOTE: Does not update the allowance if the current allowance is the maximum `uint256`. Requirements: - `from` and `to` cannot be the zero address. - `from` must have a balance of at least `amount`. - the caller must have allowance for ``from``'s tokens of at least `amount`."
      },
      "unStake(address)": {
        "params": {
          "_token": "is wich token user want to Unstake"
        }
      }
    },
    "version": 1
  },
  "userdoc": {
    "kind": "user",
    "methods": {
      "stake(address,uint256)": {
        "notice": "Stake your token and make you earn 3% APR and 2% of LpTokens"
      },
      "unStake(address)": {
        "notice": "Unstake your tokens + 3%/year + 2% of LpTokens"
      }
    },
    "version": 1
  }
}