{
  "contractName": "Staking",
  "abi": [
    {
      "inputs": [
        {
          "internalType": "address",
          "name": "_addr",
          "type": "address"
        }
      ],
      "stateMutability": "nonpayable",
      "type": "constructor"
    },
    {
      "anonymous": false,
      "inputs": [
        {
          "indexed": true,
          "internalType": "address",
          "name": "owner",
          "type": "address"
        },
        {
          "indexed": true,
          "internalType": "address",
          "name": "spender",
          "type": "address"
        },
        {
          "indexed": false,
          "internalType": "uint256",
          "name": "value",
          "type": "uint256"
        }
      ],
      "name": "Approval",
      "type": "event"
    },
    {
      "anonymous": false,
      "inputs": [
        {
          "indexed": true,
          "internalType": "address",
          "name": "_from",
          "type": "address"
        },
        {
          "indexed": false,
          "internalType": "uint256",
          "name": "_value",
          "type": "uint256"
        }
      ],
      "name": "Staked",
      "type": "event"
    },
    {
      "anonymous": false,
      "inputs": [
        {
          "indexed": true,
          "internalType": "address",
          "name": "from",
          "type": "address"
        },
        {
          "indexed": true,
          "internalType": "address",
          "name": "to",
          "type": "address"
        },
        {
          "indexed": false,
          "internalType": "uint256",
          "name": "value",
          "type": "uint256"
        }
      ],
      "name": "Transfer",
      "type": "event"
    },
    {
      "anonymous": false,
      "inputs": [
        {
          "indexed": true,
          "internalType": "address",
          "name": "_from",
          "type": "address"
        },
        {
          "indexed": false,
          "internalType": "uint256",
          "name": "_value",
          "type": "uint256"
        }
      ],
      "name": "UnStaked",
      "type": "event"
    },
    {
      "inputs": [
        {
          "internalType": "address",
          "name": "owner",
          "type": "address"
        },
        {
          "internalType": "address",
          "name": "spender",
          "type": "address"
        }
      ],
      "name": "allowance",
      "outputs": [
        {
          "internalType": "uint256",
          "name": "",
          "type": "uint256"
        }
      ],
      "stateMutability": "view",
      "type": "function",
      "constant": true
    },
    {
      "inputs": [
        {
          "internalType": "address",
          "name": "spender",
          "type": "address"
        },
        {
          "internalType": "uint256",
          "name": "amount",
          "type": "uint256"
        }
      ],
      "name": "approve",
      "outputs": [
        {
          "internalType": "bool",
          "name": "",
          "type": "bool"
        }
      ],
      "stateMutability": "nonpayable",
      "type": "function"
    },
    {
      "inputs": [
        {
          "internalType": "address",
          "name": "account",
          "type": "address"
        }
      ],
      "name": "balanceOf",
      "outputs": [
        {
          "internalType": "uint256",
          "name": "",
          "type": "uint256"
        }
      ],
      "stateMutability": "view",
      "type": "function",
      "constant": true
    },
    {
      "inputs": [],
      "name": "decimals",
      "outputs": [
        {
          "internalType": "uint8",
          "name": "",
          "type": "uint8"
        }
      ],
      "stateMutability": "view",
      "type": "function",
      "constant": true
    },
    {
      "inputs": [
        {
          "internalType": "address",
          "name": "spender",
          "type": "address"
        },
        {
          "internalType": "uint256",
          "name": "subtractedValue",
          "type": "uint256"
        }
      ],
      "name": "decreaseAllowance",
      "outputs": [
        {
          "internalType": "bool",
          "name": "",
          "type": "bool"
        }
      ],
      "stateMutability": "nonpayable",
      "type": "function"
    },
    {
      "inputs": [
        {
          "internalType": "address",
          "name": "spender",
          "type": "address"
        },
        {
          "internalType": "uint256",
          "name": "addedValue",
          "type": "uint256"
        }
      ],
      "name": "increaseAllowance",
      "outputs": [
        {
          "internalType": "bool",
          "name": "",
          "type": "bool"
        }
      ],
      "stateMutability": "nonpayable",
      "type": "function"
    },
    {
      "inputs": [],
      "name": "name",
      "outputs": [
        {
          "internalType": "string",
          "name": "",
          "type": "string"
        }
      ],
      "stateMutability": "view",
      "type": "function",
      "constant": true
    },
    {
      "inputs": [],
      "name": "symbol",
      "outputs": [
        {
          "internalType": "string",
          "name": "",
          "type": "string"
        }
      ],
      "stateMutability": "view",
      "type": "function",
      "constant": true
    },
    {
      "inputs": [],
      "name": "totalSupply",
      "outputs": [
        {
          "internalType": "uint256",
          "name": "",
          "type": "uint256"
        }
      ],
      "stateMutability": "view",
      "type": "function",
      "constant": true
    },
    {
      "inputs": [
        {
          "internalType": "address",
          "name": "to",
          "type": "address"
        },
        {
          "internalType": "uint256",
          "name": "amount",
          "type": "uint256"
        }
      ],
      "name": "transfer",
      "outputs": [
        {
          "internalType": "bool",
          "name": "",
          "type": "bool"
        }
      ],
      "stateMutability": "nonpayable",
      "type": "function"
    },
    {
      "inputs": [
        {
          "internalType": "address",
          "name": "from",
          "type": "address"
        },
        {
          "internalType": "address",
          "name": "to",
          "type": "address"
        },
        {
          "internalType": "uint256",
          "name": "amount",
          "type": "uint256"
        }
      ],
      "name": "transferFrom",
      "outputs": [
        {
          "internalType": "bool",
          "name": "",
          "type": "bool"
        }
      ],
      "stateMutability": "nonpayable",
      "type": "function"
    },
    {
      "inputs": [
        {
          "internalType": "address",
          "name": "_addr",
          "type": "address"
        },
        {
          "internalType": "uint256",
          "name": "amount",
          "type": "uint256"
        }
      ],
      "name": "stake",
      "outputs": [],
      "stateMutability": "nonpayable",
      "type": "function"
    },
    {
      "inputs": [
        {
          "internalType": "address",
          "name": "_token",
          "type": "address"
        }
      ],
      "name": "unStake",
      "outputs": [],
      "stateMutability": "nonpayable",
      "type": "function"
    },
    {
      "inputs": [
        {
          "internalType": "address",
          "name": "_token",
          "type": "address"
        },
        {
          "internalType": "address",
          "name": "_addr",
          "type": "address"
        }
      ],
      "name": "getInterests",
      "outputs": [
        {
          "internalType": "uint256",
          "name": "",
          "type": "uint256"
        }
      ],
      "stateMutability": "view",
      "type": "function",
      "constant": true
    },
    {
      "inputs": [
        {
          "internalType": "address",
          "name": "_token",
          "type": "address"
        },
        {
          "internalType": "address",
          "name": "_addr",
          "type": "address"
        }
      ],
      "name": "getLpInterests",
      "outputs": [
        {
          "internalType": "uint256",
          "name": "",
          "type": "uint256"
        }
      ],
      "stateMutability": "view",
      "type": "function",
      "constant": true
    },
    {
      "inputs": [
        {
          "internalType": "address",
          "name": "_token",
          "type": "address"
        }
      ],
      "name": "getContractBalance",
      "outputs": [
        {
          "internalType": "uint256",
          "name": "",
          "type": "uint256"
        }
      ],
      "stateMutability": "view",
      "type": "function",
      "constant": true
    },
    {
      "inputs": [
        {
          "internalType": "address",
          "name": "_token",
          "type": "address"
        },
        {
          "internalType": "address",
          "name": "_addr",
          "type": "address"
        }
      ],
      "name": "getTokenBalanceOf",
      "outputs": [
        {
          "internalType": "uint256",
          "name": "",
          "type": "uint256"
        }
      ],
      "stateMutability": "view",
      "type": "function",
      "constant": true
    },
    {
      "inputs": [
        {
          "internalType": "address",
          "name": "_token",
          "type": "address"
        },
        {
          "internalType": "address",
          "name": "_addr",
          "type": "address"
        }
      ],
      "name": "stakingOf",
      "outputs": [
        {
          "internalType": "uint256",
          "name": "",
          "type": "uint256"
        }
      ],
      "stateMutability": "view",
      "type": "function",
      "constant": true
    },
    {
      "inputs": [
        {
          "internalType": "address",
          "name": "_token",
          "type": "address"
        },
        {
          "internalType": "address",
          "name": "_addr",
          "type": "address"
        }
      ],
      "name": "getStakingTime",
      "outputs": [
        {
          "internalType": "uint256",
          "name": "",
          "type": "uint256"
        }
      ],
      "stateMutability": "view",
      "type": "function",
      "constant": true
    },
    {
      "inputs": [
        {
          "internalType": "address",
          "name": "_token",
          "type": "address"
        },
        {
          "internalType": "address",
          "name": "_addr",
          "type": "address"
        }
      ],
      "name": "getAllowanceOf",
      "outputs": [
        {
          "internalType": "uint256",
          "name": "",
          "type": "uint256"
        }
      ],
      "stateMutability": "view",
      "type": "function",
      "constant": true
    }
  ],
  "bytecode": "0x6080604052600360065560026007553480156200001b57600080fd5b5060405162001b9f38038062001b9f8339810160408190526200003e9162000178565b6040518060400160405280600781526020016626382a37b5b2b760c91b81525060405180604001604052806003815260200162131c1560ea1b815250816003908051906020019062000092929190620000d2565b508051620000a8906004906020840190620000d2565b5050600580546001600160a01b0319166001600160a01b03939093169290921790915550620001e6565b828054620000e090620001aa565b90600052602060002090601f0160209004810192826200010457600085556200014f565b82601f106200011f57805160ff19168380011785556200014f565b828001600101855582156200014f579182015b828111156200014f57825182559160200191906001019062000132565b506200015d92915062000161565b5090565b5b808211156200015d576000815560010162000162565b6000602082840312156200018b57600080fd5b81516001600160a01b0381168114620001a357600080fd5b9392505050565b600181811c90821680620001bf57607f821691505b602082108103620001e057634e487b7160e01b600052602260045260246000fd5b50919050565b6119a980620001f66000396000f3fe608060405234801561001057600080fd5b506004361061016c5760003560e01c80635a05be98116100cd578063a457c2d711610081578063adc9772e11610066578063adc9772e14610318578063d0744e3d1461032b578063dd62ed3e1461033e57600080fd5b8063a457c2d7146102f2578063a9059cbb1461030557600080fd5b806370a08231116100b257806370a08231146102a1578063883f7057146102d757806395d89b41146102ea57600080fd5b80635a05be981461024757806369bcffab1461028e57600080fd5b80632e2ff97f11610124578063387e494811610109578063387e49481461020c578063395093511461022157806343ab265f1461023457600080fd5b80632e2ff97f146101ea578063313ce567146101fd57600080fd5b806318160ddd1161015557806318160ddd146101b257806323b872dd146101c45780632d78b56d146101d757600080fd5b806306fdde0314610171578063095ea7b31461018f575b600080fd5b610179610384565b60405161018691906116c4565b60405180910390f35b6101a261019d36600461175b565b610416565b6040519015158152602001610186565b6002545b604051908152602001610186565b6101a26101d2366004611785565b61042e565b6101b66101e53660046117c1565b610452565b6101b66101f83660046117c1565b6104f4565b60405160128152602001610186565b61021f61021a3660046117f4565b6106f7565b005b6101a261022f36600461175b565b610a80565b6101b66102423660046117f4565b610acc565b6101b66102553660046117c1565b73ffffffffffffffffffffffffffffffffffffffff80821660009081526008602090815260408083209386168352929052205492915050565b6101b661029c3660046117c1565b610b63565b6101b66102af3660046117f4565b73ffffffffffffffffffffffffffffffffffffffff1660009081526020819052604090205490565b6101b66102e53660046117c1565b610c73565b610179610ccb565b6101a261030036600461175b565b610cda565b6101a261031336600461175b565b610d91565b61021f61032636600461175b565b610d9f565b6101b66103393660046117c1565b610ff3565b6101b661034c3660046117c1565b73ffffffffffffffffffffffffffffffffffffffff918216600090815260016020908152604080832093909416825291909152205490565b6060600380546103939061180f565b80601f01602080910402602001604051908101604052809291908181526020018280546103bf9061180f565b801561040c5780601f106103e15761010080835404028352916020019161040c565b820191906000526020600020905b8154815290600101906020018083116103ef57829003601f168201915b5050505050905090565b600033610424818585611032565b5060019392505050565b60003361043c8582856111b1565b61044785858561126e565b506001949350505050565b6040517fdd62ed3e00000000000000000000000000000000000000000000000000000000815273ffffffffffffffffffffffffffffffffffffffff82811660048301523060248301526000919084169063dd62ed3e906044015b602060405180830381865afa1580156104c9573d6000803e3d6000fd5b505050506040513d601f19601f820116820180604052508101906104ed9190611862565b9392505050565b73ffffffffffffffffffffffffffffffffffffffff808216600090815260086020908152604080832093861683529290529081205461057a5760405162461bcd60e51b815260206004820152601060248201527f4e6f20746f6b656e73207374616b65640000000000000000000000000000000060448201526064015b60405180910390fd5b33600090815260096020908152604080832073ffffffffffffffffffffffffffffffffffffffff871684529091528120546105b590426118aa565b600554909150600090633b9aca009073ffffffffffffffffffffffffffffffffffffffff166316345f186105e8886114d3565b6040517fffffffff0000000000000000000000000000000000000000000000000000000060e084901b16815273ffffffffffffffffffffffffffffffffffffffff9091166004820152602401602060405180830381865afa158015610651573d6000803e3d6000fd5b505050506040513d601f19601f820116820180604052508101906106759190611862565b61067f91906118c1565b61068a9060016118fc565b60065433600090815260086020908152604080832073ffffffffffffffffffffffffffffffffffffffff8b168452909152902054849163bbf81e00916106d09190611914565b6106da91906118c1565b6106e49190611914565b6106ee9190611914565b95945050505050565b33600090815260086020908152604080832073ffffffffffffffffffffffffffffffffffffffff851684529091529020546107745760405162461bcd60e51b815260206004820152601060248201527f4e6f20746f6b656e73207374616b6564000000000000000000000000000000006044820152606401610571565b33600090815260096020908152604080832073ffffffffffffffffffffffffffffffffffffffff851684529091528120546107af90426118aa565b600554909150600090633b9aca009073ffffffffffffffffffffffffffffffffffffffff166316345f186107e2866114d3565b6040517fffffffff0000000000000000000000000000000000000000000000000000000060e084901b16815273ffffffffffffffffffffffffffffffffffffffff9091166004820152602401602060405180830381865afa15801561084b573d6000803e3d6000fd5b505050506040513d601f19601f8201168201806040525081019061086f9190611862565b61087991906118c1565b6108849060016118fc565b60065433600090815260086020908152604080832073ffffffffffffffffffffffffffffffffffffffff89168452909152902054849163bbf81e00916108ca9190611914565b6108d491906118c1565b6108de9190611914565b6108e89190611914565b60075433600090815260086020908152604080832073ffffffffffffffffffffffffffffffffffffffff8916845290915281205492935091849163bbf81e00916109329190611914565b61093c91906118c1565b6109469190611914565b33600081815260086020908152604080832073ffffffffffffffffffffffffffffffffffffffff8a1684529091528120805491905591925061098890836115be565b73ffffffffffffffffffffffffffffffffffffffff851663a9059cbb336109af86856118fc565b6040517fffffffff0000000000000000000000000000000000000000000000000000000060e085901b16815273ffffffffffffffffffffffffffffffffffffffff909216600483015260248201526044016020604051808303816000875af1158015610a1f573d6000803e3d6000fd5b505050506040513d601f19601f82011682018060405250810190610a439190611951565b5060405181815233907f79d3df6837cc49ff0e09fd3258e6e45594e0703445bb06825e9d75156eaee8f09060200160405180910390a25050505050565b33600081815260016020908152604080832073ffffffffffffffffffffffffffffffffffffffff871684529091528120549091906104249082908690610ac79087906118fc565b611032565b6040517f70a0823100000000000000000000000000000000000000000000000000000000815230600482015260009073ffffffffffffffffffffffffffffffffffffffff8316906370a0823190602401602060405180830381865afa158015610b39573d6000803e3d6000fd5b505050506040513d601f19601f82011682018060405250810190610b5d9190611862565b92915050565b73ffffffffffffffffffffffffffffffffffffffff8082166000908152600860209081526040808320938616835292905290812054610be45760405162461bcd60e51b815260206004820152601060248201527f4e6f20746f6b656e73207374616b6564000000000000000000000000000000006044820152606401610571565b33600090815260096020908152604080832073ffffffffffffffffffffffffffffffffffffffff87168452909152812054610c1f90426118aa565b60075433600090815260086020908152604080832073ffffffffffffffffffffffffffffffffffffffff8a16845290915281205492935091839163bbf81e0091610c699190611914565b6106e491906118c1565b6040517f70a0823100000000000000000000000000000000000000000000000000000000815273ffffffffffffffffffffffffffffffffffffffff8281166004830152600091908416906370a08231906024016104ac565b6060600480546103939061180f565b33600081815260016020908152604080832073ffffffffffffffffffffffffffffffffffffffff8716845290915281205490919083811015610d845760405162461bcd60e51b815260206004820152602560248201527f45524332303a2064656372656173656420616c6c6f77616e63652062656c6f7760448201527f207a65726f0000000000000000000000000000000000000000000000000000006064820152608401610571565b6104478286868403611032565b60003361042481858561126e565b6040517f70a08231000000000000000000000000000000000000000000000000000000008152336004820152819073ffffffffffffffffffffffffffffffffffffffff8416906370a0823190602401602060405180830381865afa158015610e0b573d6000803e3d6000fd5b505050506040513d601f19601f82011682018060405250810190610e2f9190611862565b1015610e7d5760405162461bcd60e51b815260206004820152601260248201527f42616c616e636520697320746f6f206c6f7700000000000000000000000000006044820152606401610571565b80610e888333610452565b1015610ed65760405162461bcd60e51b815260206004820152601560248201527f436f6e7472616374206e6f7420617070726f76656400000000000000000000006044820152606401610571565b6040517f23b872dd0000000000000000000000000000000000000000000000000000000081523360048201523060248201526044810182905273ffffffffffffffffffffffffffffffffffffffff8316906323b872dd906064016020604051808303816000875af1158015610f4f573d6000803e3d6000fd5b505050506040513d601f19601f82011682018060405250810190610f739190611951565b5033600081815260086020908152604080832073ffffffffffffffffffffffffffffffffffffffff87168085529083528184208690558484526009835281842090845282529182902042905590518381527f9e71bc8eea02a63969f509818f2dafb9254532904319f9dbda79b67bd34a5f3d910160405180910390a25050565b73ffffffffffffffffffffffffffffffffffffffff80821660009081526009602090815260408083209386168352929052908120546104ed90426118aa565b73ffffffffffffffffffffffffffffffffffffffff83166110ba5760405162461bcd60e51b8152602060048201526024808201527f45524332303a20617070726f76652066726f6d20746865207a65726f2061646460448201527f72657373000000000000000000000000000000000000000000000000000000006064820152608401610571565b73ffffffffffffffffffffffffffffffffffffffff82166111435760405162461bcd60e51b815260206004820152602260248201527f45524332303a20617070726f766520746f20746865207a65726f20616464726560448201527f73730000000000000000000000000000000000000000000000000000000000006064820152608401610571565b73ffffffffffffffffffffffffffffffffffffffff83811660008181526001602090815260408083209487168084529482529182902085905590518481527f8c5be1e5ebec7d5bd14f71427d1e84f3dd0314c0f7b2291e5b200ac8c7c3b925910160405180910390a3505050565b73ffffffffffffffffffffffffffffffffffffffff8381166000908152600160209081526040808320938616835292905220547fffffffffffffffffffffffffffffffffffffffffffffffffffffffffffffffff8114611268578181101561125b5760405162461bcd60e51b815260206004820152601d60248201527f45524332303a20696e73756666696369656e7420616c6c6f77616e63650000006044820152606401610571565b6112688484848403611032565b50505050565b73ffffffffffffffffffffffffffffffffffffffff83166112f75760405162461bcd60e51b815260206004820152602560248201527f45524332303a207472616e736665722066726f6d20746865207a65726f20616460448201527f64726573730000000000000000000000000000000000000000000000000000006064820152608401610571565b73ffffffffffffffffffffffffffffffffffffffff82166113805760405162461bcd60e51b815260206004820152602360248201527f45524332303a207472616e7366657220746f20746865207a65726f206164647260448201527f65737300000000000000000000000000000000000000000000000000000000006064820152608401610571565b73ffffffffffffffffffffffffffffffffffffffff83166000908152602081905260409020548181101561141c5760405162461bcd60e51b815260206004820152602660248201527f45524332303a207472616e7366657220616d6f756e742065786365656473206260448201527f616c616e636500000000000000000000000000000000000000000000000000006064820152608401610571565b73ffffffffffffffffffffffffffffffffffffffff8085166000908152602081905260408082208585039055918516815290812080548492906114609084906118fc565b925050819055508273ffffffffffffffffffffffffffffffffffffffff168473ffffffffffffffffffffffffffffffffffffffff167fddf252ad1be2c89b69c2b068fc378daa952ba7f163c4a11628f55a4df523b3ef846040516114c691815260200190565b60405180910390a3611268565b600073ffffffffffffffffffffffffffffffffffffffff8216734f96fe3b7a6cf9725f59d353f723c1bdb64ca6aa03611521575073777a68032a88e5a84678a77af2cd65a7b3c0775a919050565b73ffffffffffffffffffffffffffffffffffffffff821673f00503d6771d820c94066a42edbcc9428652c5180361156d5750738993ed705cdf5e84d0a3b754b5ee0e1783fcdf16919050565b73ffffffffffffffffffffffffffffffffffffffff821673e19b09e0a62adaec3e1dc59cbe66bda0ec8a1faa0361016c575073396c5e36dd0a0f5a5d33dae44368d4193f69a1f0919050565b919050565b73ffffffffffffffffffffffffffffffffffffffff82166116215760405162461bcd60e51b815260206004820152601f60248201527f45524332303a206d696e7420746f20746865207a65726f2061646472657373006044820152606401610571565b806002600082825461163391906118fc565b909155505073ffffffffffffffffffffffffffffffffffffffff82166000908152602081905260408120805483929061166d9084906118fc565b909155505060405181815273ffffffffffffffffffffffffffffffffffffffff8316906000907fddf252ad1be2c89b69c2b068fc378daa952ba7f163c4a11628f55a4df523b3ef9060200160405180910390a35050565b600060208083528351808285015260005b818110156116f1578581018301518582016040015282016116d5565b81811115611703576000604083870101525b50601f017fffffffffffffffffffffffffffffffffffffffffffffffffffffffffffffffe016929092016040019392505050565b803573ffffffffffffffffffffffffffffffffffffffff811681146115b957600080fd5b6000806040838503121561176e57600080fd5b61177783611737565b946020939093013593505050565b60008060006060848603121561179a57600080fd5b6117a384611737565b92506117b160208501611737565b9150604084013590509250925092565b600080604083850312156117d457600080fd5b6117dd83611737565b91506117eb60208401611737565b90509250929050565b60006020828403121561180657600080fd5b6104ed82611737565b600181811c9082168061182357607f821691505b60208210810361185c577f4e487b7100000000000000000000000000000000000000000000000000000000600052602260045260246000fd5b50919050565b60006020828403121561187457600080fd5b5051919050565b7f4e487b7100000000000000000000000000000000000000000000000000000000600052601160045260246000fd5b6000828210156118bc576118bc61187b565b500390565b6000826118f7577f4e487b7100000000000000000000000000000000000000000000000000000000600052601260045260246000fd5b500490565b6000821982111561190f5761190f61187b565b500190565b6000817fffffffffffffffffffffffffffffffffffffffffffffffffffffffffffffffff048311821515161561194c5761194c61187b565b500290565b60006020828403121561196357600080fd5b815180151581146104ed57600080fdfea26469706673582212208e48419472553e378c8e190a38964fbb8a87ae1a69e550888641e30753a1e4fe64736f6c634300080d0033",
  "immutableReferences": {},
  "source": "// SPDX-License-Identifier: MIT\n///@author Adam Korchane - Alyra\npragma solidity 0.8.13;\n\nimport \"@openzeppelin/contracts/token/ERC20/ERC20.sol\";\nimport \"@openzeppelin/contracts/token/ERC20/IERC20.sol\";\n\ninterface IOracle{\n    function getLatestPrice(address _addr) external view returns (int);\n}\n\ncontract Staking is ERC20{\n    IOracle oracle;\n    uint rate = 3;\n    uint lPTrate = 2;\n    mapping(address => mapping(address => uint)) Balance; //guy => token => balance\n    mapping(address => mapping(address => uint)) DepositDate; //guy => token => timestamp\n\n    event Staked(address indexed _from, uint _value);\n    event UnStaked(address indexed _from, uint _value);\n\n    constructor(address _addr) ERC20(\"LpToken\", \"LpT\"){\n        oracle = IOracle(_addr);\n    }\n\n    /**\n    *@param amount is the amount we want to stake\n    *@param _addr is the token we want to stake\n    *@dev user has to approve contract before\n    *@notice Stake your token and make you earn 3% APR and 2% of LpTokens\n    */\n    function stake(address _addr, uint amount)external{\n        require(IERC20(_addr).balanceOf(msg.sender) >= amount, \"Balance is too low\");\n        require(getAllowanceOf(_addr, msg.sender) >= amount, \"Contract not approved\");\n        IERC20(_addr).transferFrom(msg.sender, address(this), amount);\n        Balance[msg.sender][_addr] = amount;\n        DepositDate[msg.sender][_addr] = block.timestamp;\n        emit Staked(msg.sender, amount);\n    }\n\n    /**\n    *@param _token is wich token user want to Unstake\n    *@notice Unstake your tokens + 3%/year + 2% of LpTokens\n    *@dev I used Chainlink because it was required by the specifications, but\n    *because Dai is a stable coin and solidity does not support float numbers\n    *in this case it will only multiply by 1 (and not 1.010...)\n    */\n    function unStake(address _token)external{\n        require(Balance[msg.sender][_token] > 0, \"No tokens staked\");\n        uint timeStaked = block.timestamp - DepositDate[msg.sender][_token];\n\n        uint interest = (((Balance[msg.sender][_token] * rate) / 3153600000) * timeStaked) * (1 +(uint(oracle.getLatestPrice(getOracleAddress(_token)))/(1*10**9)));\n        uint lptInterest = ((Balance[msg.sender][_token] * lPTrate) / 3153600000) * timeStaked;\n        uint balance = Balance[msg.sender][_token];\n        Balance[msg.sender][_token] = 0;\n        _mint(msg.sender, lptInterest);\n        IERC20(_token).transfer(msg.sender, (balance + interest));\n        emit UnStaked(msg.sender, balance);\n    }\n\n    //Interests Getters : \n    /**\n    *@param _token is the tokens we want to get interests of\n    *@param _addr is the address we want to get interests of\n    *@return winned interests of _addr\n    */\n    function getInterests(address _token ,address _addr)public view returns(uint){\n        require(Balance[_addr][_token] > 0, \"No tokens staked\");\n        uint timeStaked = block.timestamp - DepositDate[msg.sender][_token];\n        uint interest = (((Balance[msg.sender][_token] * rate) / 3153600000) * timeStaked) * (1 +(uint(oracle.getLatestPrice(getOracleAddress(_token)))/(1*10**9)));\n        return interest;\n    }\n\n    /**\n    *@param _token is the tokens we want to get interests of\n    *@param _addr is the address we want to get Lp tokens interests of\n    *@return winned Lp tokens interests of _addr\n    */\n    function getLpInterests(address _token ,address _addr)public view returns(uint){\n        require(Balance[_addr][_token] > 0, \"No tokens staked\");\n        uint timeStaked = block.timestamp - DepositDate[msg.sender][_token];\n        uint lptInterest = ((Balance[msg.sender][_token] * lPTrate) / 3153600000) * timeStaked;\n        return lptInterest;\n    }\n\n    //Getters : \n\n    /**\n    *@param _token to get the contract's balance of this token\n    *@return the amount of dai stored in the contract\n    */\n    function getContractBalance(address _token)external view returns(uint){\n        return IERC20(_token).balanceOf(address(this));\n    }\n\n    /**\n    *@param _token is the token we want to get the balance\n    *@param _addr is the address we want to verify\n    *@return the amount of dai _addr got\n    */\n    function getTokenBalanceOf(address _token ,address _addr)public view returns(uint){\n        return IERC20(_token).balanceOf(_addr);\n    }\n\n    /**\n    *@param _token is the token we want to get the staking\n    *@param _addr is the address we want to verify\n    *@return the amount of dai _addr stake in this contract\n    */\n    function stakingOf(address _token, address _addr)external view returns(uint){\n        return Balance[_addr][_token];\n    }\n\n    /**\n    *@param _addr is the address we want to verify\n    *@return how much time(in seconds) _addr stake his dai \n    */\n    function getStakingTime(address  _token, address _addr)external view returns(uint){\n        return block.timestamp - DepositDate[_addr][_token];\n    }\n\n    /**\n    *@param _token is wich token we want to check allowance of\n    *@param _addr is the address we want to verify\n    *@return the allowance that approved '_addr' to this contract\n    */\n    function getAllowanceOf(address _token, address _addr)public view returns(uint){\n        return IERC20(_token).allowance(_addr, address(this));\n    }\n\n    //Utils\n\n    /**\n    *@param _token is the token we want to get the price\n    *@dev return token's correspondant chainlink's data feeder\n    */\n    function getOracleAddress(address _token)private pure returns(address){\n        if(_token == 0x4F96Fe3b7A6Cf9725f59d353F723c1bDb64CA6Aa){\n            return 0x777A68032a88E5A84678A77Af2CD65A7b3c0775a;\n            }\n        else if(_token == 0xF00503d6771d820C94066a42EdbCc9428652C518){\n            return 0x8993ED705cdf5e84D0a3B754b5Ee0e1783fcdF16;\n            }\n        else if(_token == 0xe19b09e0a62aDaEc3E1DC59CbE66bDA0Ec8A1FAa){\n            return 0x396c5E36DD0a0F5a5D33dae44368D4193f69a1F0;\n            }\n        else{\n            revert();\n            }\n    }\n}",
  "sourcePath": "/home/amsteradams/developpement/Solidity-defi/Staking/contracts/Staking.sol",
  "compiler": {
    "name": "solc",
    "version": "0.8.13+commit.abaa5c0e.Emscripten.clang"
  },
  "schemaVersion": "3.4.6",
  "updatedAt": "2022-05-03T11:33:47.272Z",
  "networkType": "ethereum",
  "devdoc": {
    "kind": "dev",
    "methods": {
      "allowance(address,address)": {
        "details": "See {IERC20-allowance}."
      },
      "approve(address,uint256)": {
        "details": "See {IERC20-approve}. NOTE: If `amount` is the maximum `uint256`, the allowance is not updated on `transferFrom`. This is semantically equivalent to an infinite approval. Requirements: - `spender` cannot be the zero address."
      },
      "balanceOf(address)": {
        "details": "See {IERC20-balanceOf}."
      },
      "decimals()": {
        "details": "Returns the number of decimals used to get its user representation. For example, if `decimals` equals `2`, a balance of `505` tokens should be displayed to a user as `5.05` (`505 / 10 ** 2`). Tokens usually opt for a value of 18, imitating the relationship between Ether and Wei. This is the value {ERC20} uses, unless this function is overridden; NOTE: This information is only used for _display_ purposes: it in no way affects any of the arithmetic of the contract, including {IERC20-balanceOf} and {IERC20-transfer}."
      },
      "decreaseAllowance(address,uint256)": {
        "details": "Atomically decreases the allowance granted to `spender` by the caller. This is an alternative to {approve} that can be used as a mitigation for problems described in {IERC20-approve}. Emits an {Approval} event indicating the updated allowance. Requirements: - `spender` cannot be the zero address. - `spender` must have allowance for the caller of at least `subtractedValue`."
      },
      "getAllowanceOf(address,address)": {
        "params": {
          "_addr": "is the address we want to verify",
          "_token": "is wich token we want to check allowance of"
        },
        "returns": {
          "_0": "the allowance that approved '_addr' to this contract"
        }
      },
      "getContractBalance(address)": {
        "params": {
          "_token": "to get the contract's balance of this token"
        },
        "returns": {
          "_0": "the amount of dai stored in the contract"
        }
      },
      "getInterests(address,address)": {
        "params": {
          "_addr": "is the address we want to get interests of",
          "_token": "is the tokens we want to get interests of"
        },
        "returns": {
          "_0": "winned interests of _addr"
        }
      },
      "getLpInterests(address,address)": {
        "params": {
          "_addr": "is the address we want to get Lp tokens interests of",
          "_token": "is the tokens we want to get interests of"
        },
        "returns": {
          "_0": "winned Lp tokens interests of _addr"
        }
      },
      "getStakingTime(address,address)": {
        "params": {
          "_addr": "is the address we want to verify"
        },
        "returns": {
          "_0": "how much time(in seconds) _addr stake his dai "
        }
      },
      "getTokenBalanceOf(address,address)": {
        "params": {
          "_addr": "is the address we want to verify",
          "_token": "is the token we want to get the balance"
        },
        "returns": {
          "_0": "the amount of dai _addr got"
        }
      },
      "increaseAllowance(address,uint256)": {
        "details": "Atomically increases the allowance granted to `spender` by the caller. This is an alternative to {approve} that can be used as a mitigation for problems described in {IERC20-approve}. Emits an {Approval} event indicating the updated allowance. Requirements: - `spender` cannot be the zero address."
      },
      "name()": {
        "details": "Returns the name of the token."
      },
      "stake(address,uint256)": {
        "details": "user has to approve contract before",
        "params": {
          "_addr": "is the token we want to stake",
          "amount": "is the amount we want to stake"
        }
      },
      "stakingOf(address,address)": {
        "params": {
          "_addr": "is the address we want to verify",
          "_token": "is the token we want to get the staking"
        },
        "returns": {
          "_0": "the amount of dai _addr stake in this contract"
        }
      },
      "symbol()": {
        "details": "Returns the symbol of the token, usually a shorter version of the name."
      },
      "totalSupply()": {
        "details": "See {IERC20-totalSupply}."
      },
      "transfer(address,uint256)": {
        "details": "See {IERC20-transfer}. Requirements: - `to` cannot be the zero address. - the caller must have a balance of at least `amount`."
      },
      "transferFrom(address,address,uint256)": {
        "details": "See {IERC20-transferFrom}. Emits an {Approval} event indicating the updated allowance. This is not required by the EIP. See the note at the beginning of {ERC20}. NOTE: Does not update the allowance if the current allowance is the maximum `uint256`. Requirements: - `from` and `to` cannot be the zero address. - `from` must have a balance of at least `amount`. - the caller must have allowance for ``from``'s tokens of at least `amount`."
      },
      "unStake(address)": {
        "details": "I used Chainlink because it was required by the specifications, but because Dai is a stable coin and solidity does not support float numbers in this case it will only multiply by 1 (and not 1.010...)",
        "params": {
          "_token": "is wich token user want to Unstake"
        }
      }
    },
    "version": 1
  },
  "userdoc": {
    "kind": "user",
    "methods": {
      "stake(address,uint256)": {
        "notice": "Stake your token and make you earn 3% APR and 2% of LpTokens"
      },
      "unStake(address)": {
        "notice": "Unstake your tokens + 3%/year + 2% of LpTokens"
      }
    },
    "version": 1
  }
}